:020000040800F2
:10000000000002208D1400088514000885140008E3
:1000100085140008851400088514000800000000FD
:10002000000000000000000000000000851400082F
:100030008514000800000000851400085110000815
:1000400000000000000000000000000000000000B0
:1000500000000000000000000000000000000000A0
:100060000000000000000000000000000000000090
:100070000000000000000000000000000000000080
:100080000000000000000000000000000000000070
:100090000000000000000000000000000000000060
:1000A0000000000000000000000000000000000050
:1000B0000000000000000000000000000000000040
:1000C0000000000000000000000000000000000030
:0C00D00000000000D510000821110008FD
:1001000080B500AF40F2026001F047FB4FF40053AE
:10011000002201210A4801F0F4FA4FF4C06001F016
:100120003CFB40F20C6300220221064801F0E9FA90
:1001300040F20C620721034801F003FB00BF80BDC1
:10014000000802400000024080B5DCB000AF07F5B7
:10015000B873A3F5B273186007F5B873A3F5B47359
:10016000196007F5B873A3F5B6731A6007F5B8738D
:10017000A3F5B27306225849186801F0F7FE03464A
:10018000002B0ED007F5B873A3F5B27306225349BE
:10019000186801F0EBFE0346002B02D0002300F0AC
:1001A000B4BC07F5B873A3F5B27307F11C004FF4A4
:1001B0008072196801F016FF07F5B873A3F5AA73EA
:1001C000002283F8FF200023C7F868310023C7F816
:1001D00064310023C7F860310023C7F85C31002385
:1001E000C7F858310023C7F854310023C7F85031FD
:1001F00007F11C033A49184601F028FFC7F86C01C3
:100200003AE0D7F868310133C7F86831D7F8683178
:10021000022B03D1D7F86C31C7F86431D7F86831B5
:10022000032B03D1D7F86C31C7F86031D7F86831A8
:10023000042B03D1D7F86C31C7F85C31D7F868319B
:10024000052B03D1D7F86C31C7F85831D7F868318E
:10025000062B03D1D7F86C31C7F85431D7F8683181
:10026000072B03D1D7F86C31C7F850311C49002057
:1002700001F0ECFEC7F86C01D7F86C31002BC0D14F
:10028000202001F06FF8D7F8600101F039F903463A
:100290001946D7F8600101F077F8202001F062F8E4
:1002A000D7F86031002B04D0D7F860311B78412B90
:1002B00018D0D7F8600101F023F903461946D7F8A2
:1002C000600101F061F8442001F04CF8202001F0B9
:1002D00049F8002300F019BCCC200008D420000805
:1002E000DC200008412001F03DF8202001F03AF820
:1002F000D7F85C31002B00F00884D7F85431002B7C
:1003000000F00384D7F85831002B00F0FE83D7F8B3
:100310005031002B00F0F983D7F86431002B00F046
:10032000F483312001F01EF8202001F01BF8D7F8EB
:100330005C0101F0BBFC0346E24A82FB031252114E
:10034000DB17D31AC7F82831D7F85C0101F0AEFCEF
:100350000346DC4A82FB03125111DA178A1A642120
:1003600001FB02F29B1AC7F82431D7F82831D64A8C
:1003700003FB02F2D7F82431D34901FB03F3D3493D
:1003800081FB030119444911DB17CB1A1344C7F849
:100390004C31D7F858311B78532B04D1D7F84C3156
:1003A0005B42C7F84C31D7F8540101F07FFC03469B
:1003B000C44A82FB03125211DB17D31AC7F820314B
:1003C000D7F8540101F072FC0346BE4A82FB0312C7
:1003D0005111DA178A1A642101FB02F29B1AC7F83D
:1003E0001C31D7F82031B84A03FB02F2D7F81C3190
:1003F000B54901FB03F3B54981FB030119444911D8
:10040000DB17CB1A1344C7F84831D7F850311B78A3
:10041000572B04D1D7F848315B42C7F84831422006
:1004200000F0A0FF202000F09DFF0023C7F844311A
:100430000023C7F840310023C7F83C310023C7F838
:100440003831D7F8640101F05BF80346082B4AD92C
:10045000D7F864311B78A3F1300213469B00134494
:100460005B001A46D7F8643101331B78303B1344E4
:10047000C7F84431D7F8643102331B78A3F1300256
:1004800013469B0013445B001A46D7F864310333CC
:100490001B78303B1344C7F84031D7F8643104333C
:1004A0001B78A3F1300213469B0013445B001A46ED
:1004B000D7F8643105331B78303B1344C7F83C311F
:1004C000D7F8643107331B78A3F1300213469B0041
:1004D00013445B001A46D7F8643108331B78303B6D
:1004E0001344C7F83831432000F03CFF202000F0CF
:1004F00039FF0023C7F83431D7F8343105331A46B1
:1005000007F5B873A3F5B6731B68934245D9D7F8BE
:1005100034315A1CC7F834211A4607F5B873A3F5CD
:10052000B4731B68134454221A70D7F834315A1C20
:10053000C7F834211A4607F5B873A3F5B4731B68DE
:10054000134469221A70D7F834315A1CC7F8342181
:100550001A4607F5B873A3F5B4731B6813446D22EC
:100560001A70D7F834315A1CC7F834211A4607F5E7
:10057000B873A3F5B4731B68134465221A70D7F8D7
:1005800034315A1CC7F834211A4607F5B873A3F55D
:10059000B4731B6813443A221A70D7F83431083305
:1005A0001A4607F5B873A3F5B6731B68934240F279
:1005B0000781D7F84431464A82FB03129210DB17B9
:1005C000D31ADAB2D7F83431591CC7F834111946A6
:1005D00007F5B873A3F5B4731B680B443032D2B27D
:1005E0001A70D7F844213A4B83FB02139910D317A2
:1005F000C91A0B469B000B445B00D11ACAB2D7F84C
:100600003431591CC7F83411194607F5B873A3F5EE
:10061000B4731B680B443032D2B21A70D7F834313D
:100620005A1CC7F834211A4607F5B873A3F5B473FA
:100630001B6813443A221A70D7F84031244A82FBCF
:1006400003129210DB17D31ADAB2D7F83431591CDF
:10065000C7F83411194607F5B873A3F5B4731B68CE
:100660000B443032D2B21A70D7F84021184B83FBBA
:1006700002139910D317C91A0B469B000B445B0059
:10068000D11ACAB2D7F83431591CC7F834111946F7
:1006900007F5B873A3F5B4731B680B443032D2B2BC
:1006A0001A70D7F834315A1CC7F834211A4607F5A6
:1006B000B873A3F5B4731B6813443A221A70D7F8C1
:1006C0003C3107E01F85EB5140420F008988888844
:1006D00067666666984A82FB03129210DB17D31A8C
:1006E000DAB2D7F83431591CC7F83411194607F576
:1006F000B873A3F5B4731B680B443032D2B21A70CE
:10070000D7F83C218C4B83FB02139910D317C91ADD
:100710000B469B000B445B00D11ACAB2D7F83431A8
:10072000591CC7F83411194607F5B873A3F5B4730B
:100730001B680B443032D2B21A70D7F834315A1CCD
:10074000C7F834211A4607F5B873A3F5B4731B68CC
:1007500013442E221A70D7F83831774A82FB0312DD
:100760009210DB17D31ADAB2D7F83431591CC7F814
:100770003411194607F5B873A3F5B4731B680B441D
:100780003032D2B21A70D7F838216B4B83FB021388
:100790009910D317C91A0B469B000B445B00D11A62
:1007A000CAB2D7F83431591CC7F83411194607F5C5
:1007B000B873A3F5B4731B680B443032D2B21A700D
:1007C000D7F8343107331A4607F5B873A3F5B67373
:1007D0001B68934261D9D7F834315A1CC7F83421C9
:1007E0001A4607F5B873A3F5B4731B6813442022A7
:1007F0001A70D7F834315A1CC7F834211A4607F555
:10080000B873A3F5B4731B68134455221A70D7F854
:1008100034315A1CC7F834211A4607F5B873A3F5CA
:10082000B4731B68134454221A70D7F834315A1C1D
:10083000C7F834211A4607F5B873A3F5B4731B68DB
:10084000134443221A70D7F834315A1CC7F83421A4
:100850001A4607F5B873A3F5B4731B681344202236
:100860001A70D7F834315A1CC7F834211A4607F5E4
:10087000B873A3F5B4731B6813447C221A70D7F8BD
:1008800034315A1CC7F834211A4607F5B873A3F55A
:10089000B4731B68134420221A70D7F83431043320
:1008A0001A4607F5B873A3F5B6731B68934237D998
:1008B000D7F834315A1CC7F834211A4607F5B873F3
:1008C000A3F5B4731B6813444C221A70D7F8343163
:1008D0005A1CC7F834211A4607F5B873A3F5B47348
:1008E0001B68134461221A70D7F834315A1CC7F8B8
:1008F00034211A4607F5B873A3F5B4731B68134483
:1009000074221A70D7F834315A1CC7F834211A46A9
:1009100007F5B873A3F5B4731B6813443A221A7031
:1009200007F110030A221946D7F84C0101F0C2F969
:100930000023C7F830311BE067666666D7F83431AC
:100940005A1CC7F834211A4607F5B873A3F5B473D7
:100950001B68134407F5B872A2F5B071D7F83021BF
:100960000A4412781A70D7F830310133C7F83031A1
:1009700007F5B873A3F5B072D7F8303113441B787C
:10098000002B09D007F5B873A3F5B6731B685A1E80
:10099000D7F834319A42D1D8D7F8343104331A46D3
:1009A00007F5B873A3F5B6731B68934261D9D7F8FE
:1009B00034315A1CC7F834211A4607F5B873A3F529
:1009C000B4731B68134420221A70D7F834315A1CB0
:1009D000C7F834211A4607F5B873A3F5B4731B683A
:1009E00013447C221A70D7F834315A1CC7F83421CA
:1009F0001A4607F5B873A3F5B4731B681344202295
:100A00001A70D7F834315A1CC7F834211A4607F542
:100A1000B873A3F5B4731B6813444C221A70D7F84B
:100A200034315A1CC7F834211A4607F5B873A3F5B8
:100A3000B4731B6813446F221A70D7F834315A1CF0
:100A4000C7F834211A4607F5B873A3F5B4731B68C9
:100A500013446E221A70D7F834315A1CC7F8342167
:100A60001A4607F5B873A3F5B4731B6813443A220A
:100A70001A7007F110030A221946D7F8480101F04D
:100A800019F90023C7F82C3119E0D7F834315A1C72
:100A9000C7F834211A4607F5B873A3F5B4731B6879
:100AA000134407F5B872A2F5B071D7F82C210A44A7
:100AB00012781A70D7F82C310133C7F82C3107F5AA
:100AC000B873A3F5B072D7F82C3113441B78002B00
:100AD00009D007F5B873A3F5B6731B685A1ED7F88B
:100AE00034319A42D1D8D7F8343107F5B872A2F52B
:100AF000B4721268134400221A70442000F032FCD1
:100B0000202000F02FFC0123FFE7184607F5B877F7
:100B1000BD4680BDF0B5ADF2B45D00AF00F0D2FAD5
:100B2000FFF7EEFA4FF40051D74800F0DFFD00F078
:100B30001DFB00F051FB07F5B663A3F5866318466D
:100B40004FF480631A46002101F0C2F90023C7F870
:100B5000AC350DE007F5B663A3F58662D7F8AC3582
:100B60001344AA221A70D7F8AC350133C7F8AC3554
:100B7000D7F8AC35B3F5806FECDB4023C7F894357C
:100B800000F092FA07F5B463C3E9000107F5B66314
:100B9000A3F59663184680231A46002101F098F9C0
:100BA00007F5B663A3F5A663184680231A4600210D
:100BB00001F08EF90023C7F890350023C7F89C3563
:100BC0000EE0B24B1A68D7F894351344AF4A13605D
:100BD000AE4B1B68AE4A934202D1062000F05EF98C
:100BE000AA4B1B681B78FF2BEBD14FF40051A64892
:100BF00000F07EFD00F058FA07F5B463D3E9002356
:100C0000841A61EB0305B4F57A7F75F100030AD30A
:100C10004FF400519C4800F06BFD00F045FA07F5D9
:100C2000B463C3E9000100F004FC0346002BE1D0EB
:100C300000F0F0FB034687F88F3507F5B663A3F5A0
:100C40009662D7F89C35134497F88F251A70D7F819
:100C50009C350133C7F89C3597F88F350A2BC9D1DD
:100C600007F5B663A3F59662D7F89C3513440022C6
:100C70001A70D7F89C35012B13D9D7F89C35023B55
:100C800007F5B662A2F59662D35C0D2B09D1D7F8B1
:100C90009C35023B07F5B662A2F596620021D1545D
:100CA00008E0D7F89C35013B07F5B662A2F59662DD
:100CB0000021D154D7F89C35012B13D9D7F89C3596
:100CC000023B07F5B662A2F59662D35C0D2B09D103
:100CD000D7F89C35023B07F5B662A2F59662002173
:100CE000D15408E0D7F89C35013B07F5B662A2F570
:100CF00096620021D15407F58073184600F000FC7D
:100D0000024607F580731146184600F03DFB07F1D7
:100D1000800107F5807380221846FFF715FA07F166
:100D20008003184600F0ECFB024607F180031146F1
:100D3000184600F029FB07F18003184600F0E0FB9D
:100D4000C7F88805D7F88835C7F898350DE007F556
:100D5000B663A3F5A662D7F898351344AA221A7091
:100D6000D7F898350133C7F89835D7F898353F2B21
:100D7000EDD907F5B663A3F5A663002283F84020FA
:100D800007F18003184600F0BBFB0346414AA2FB73
:100D90000323DB08C7F8843507F18003184600F009
:100DA000AFFB02463B4BA3FB0213D9080B469B004B
:100DB0000B445B00D31AC7F880350A2000F0D2FA42
:100DC00007F18003184600F09BFB024607F1800301
:100DD0001146184600F0D8FA0A2000F0C3FAD7F8F6
:100DE0008435DBB23033DBB2184600F0BBFAD7F8FB
:100DF0008035DBB23033DBB2184600F0B3FA07F1CE
:100E000080034021184600F0BFFA204B204A1A60A8
:100E10001E4B1B681E4607F18003184600F070FB4E
:100E2000024607F180031946304600F049F8174B97
:100E30001B6818463B468022194600F054F83B4692
:100E40008021184600F0A0FA104B1A68D7F89435A4
:100E500013440E4A13600D4B1B68B3F5802F03D16A
:100E6000072000F01BF80AE0084B1B680A4A93426F
:100E700005D1062000F012F8044B054A1A60002341
:100E8000C7F89C35B6E600BF00080240000000200D
:100E900000000408CDCCCCCC0000080880B582B09E
:100EA00000AF0346FB7100F097FBFB790021184669
:100EB00000F0E4FB00F09EFB00BF0837BD4680BD9C
:100EC00080B584B000AFF860B9607A6000F084FB50
:100ED0007A68B968F86800F0C3FB00F08BFB00BFCC
:100EE0001037BD4680BD80B487B000AFF860B960F0
:100EF0007A60FB683B6100237B610AE03A697B69A9
:100F00001A44B9687B690B4412781A707B69013303
:100F10007B617A697B689A42F0D300BF00BF1C37BF
:100F2000BD465DF8047B704780B485B000AFF860C3
:100F3000B9607A60FB68BA681A60FB6800229A6040
:100F4000FB680022DA607B685A1EFB685A6000BFAB
:100F50001437BD465DF8047B704780B483B000AFA2
:100F600078607B689A687B68DB689A420CBF0123D3
:100F70000023DBB218460C37BD465DF8047B704792
:100F800080B487B000AF78600B46FB707B689B68CD
:100F90007B617B68DB683B613B695A1C7B685B68F3
:100FA0001340FB60FA687B699A4201D1002309E093
:100FB0007B681A683B691344FA781A707B68FA6890
:100FC000DA60012318461C37BD465DF8047B704784
:100FD00080B485B000AF786039607B689B68FB6047
:100FE0007B68DB68BB60BA68FB689A4201D100236A
:100FF00010E07B681A68FB6813441A783B681A7023
:10100000FB685A1C7B685B681340FB607B68FA686E
:101010009A60012318461437BD465DF8047B70477B
:1010200080B483B000AF78607B689B6818460C374B
:10103000BD465DF8047B704780B483B000AF786034
:101040007B68DB6818460C37BD465DF8047B70474B
:1010500080B400AF064BD3E90023501C43F10001DC
:10106000034BC3E9000100BFBD465DF8047B704738
:101070005801002080B500AF024800F0BDFC00BF61
:1010800080BD00BFE020000880B500AF05494FF4E7
:101090007A7000F091FD00F0B2FD00F0A9FD00BFF4
:1010A00080BD00BF00BD010580B400AF044BD3E993
:1010B000002310461946BD465DF8047B704700BF0B
:1010C0005801002080B500AFFFF7D4FFFFF7DCFF29
:1010D00000BF80BD80B582B000AF08210E4800F08F
:1010E0005AFD0346FB7120210B4800F054FD0346D6
:1010F000BB71BB79002B02D1FB79002B08D00648CD
:1011000000F041FD0346DBB219460448FFF738FF03
:1011100000BF0837BD4680BD0010014060010020BF
:1011200080B582B000AF08210E4800F034FD0346C0
:10113000FB7120210B4800F02EFD0346BB71BB79EB
:10114000002B02D1FB79002B08D0064800F01BFDD4
:101150000346DBB219460448FFF712FF00BF083709
:10116000BD4680BD00440040F001002080B500AFC6
:10117000802216491648FFF7D7FE40F6840000F09B
:101180000CFB0C21134800F0D9FC0021114800F0A1
:10119000DBFC08210F4800F0BCFC4FF4E1310D48A6
:1011A00000F0ACFC00210B4800F0C2FC0121094812
:1011B00000F0B8FC074800F0DDFC252000F026FD1B
:1011C000044800F0C7FC00BF80BD00BF70010020D4
:1011D000600100200010014080B500AF8022164958
:1011E0001648FFF7A1FE40F6110000F0D6FA0C21D8
:1011F000134800F0A3FC0021114800F0A5FC0821D1
:101200000F4800F086FC4FF4E1310D4800F076FC09
:1012100000210B4800F08CFC0121094800F082FC01
:10122000074800F0A7FC262000F0F0FC044800F07E
:1012300091FC00BF80BD00BF00020020F001002033
:101240000044004080B582B000AF0346FB71FB79DB
:101250009BB21946034800F082FC00BF0837BD4628
:1012600080BD00BF0010014080B584B000AF786041
:1012700039600023FB6009E07A68FB6813441B783F
:101280001846FFF7DFFFFB680133FB60FA683B6835
:101290009A42F1D300BF00BF1037BD4680BD80B574
:1012A00084B000AF786039603B68002B01D1002327
:1012B00019E00023FB600FE07A68FB6813441946CD
:1012C0000B48FFF785FE034683F00103DBB2002BDA
:1012D00007D1FB680133FB60FA683B689A42EBD3A5
:1012E00000E000BFFB6818461037BD4680BD00BF58
:1012F0006001002080B582B000AF0023FB71FB1DB0
:1013000001211846FFF7CBFFFB7918460837BD4689
:1013100080BD80B500AF0848FFF71FFE0346002BD5
:1013200014BF01230023DBB283F00103DBB203F01F
:101330000103DBB2184680BD6001002080B500AF1C
:101340000248FFF779FE0346184680BD6001002081
:1013500080B500AF0248FFF763FE0346184680BD24
:101360006001002080B582B000AF0346FB71FB79BD
:101370009BB21946034800F0F2FB00BF0837BD4698
:1013800080BD00BF0044004080B584B000AF7860ED
:1013900039600023FB6009E07A68FB6813441B781E
:1013A0001846FFF7DFFFFB680133FB60FA683B6814
:1013B0009A42F1D300BF00BF1037BD4680BD80B553
:1013C00084B000AF786039603B68002B01D1002306
:1013D00019E00023FB600FE07A68FB6813441946AC
:1013E0000B48FFF7F5FD034683F00103DBB2002B4A
:1013F00007D1FB680133FB60FA683B689A42EBD384
:1014000000E000BFFB6818461037BD4680BD00BF36
:10141000F001002080B582B000AF0023FB71FB1DFE
:1014200001211846FFF7CBFFFB7918460837BD4668
:1014300080BD80B500AF0848FFF78FFD0346002B45
:1014400014BF01230023DBB283F00103DBB203F0FE
:101450000103DBB2184680BDF001002080B500AF6B
:101460000248FFF7E9FD0346184680BDF001002061
:1014700080B500AF0248FFF7D3FD0346184680BD94
:10148000F001002080B400AF00BFFDE780B582B05E
:1014900000AF104B7B60104B3B6007E07A68131D78
:1014A0007B603B68191D396012681A603B680B4A03
:1014B0009342F3D30A4B3B6004E03B681A1D3A6049
:1014C00000221A603B68074A9342F6D3FFF722FBDB
:1014D00000BFFDE784220008000000205801002022
:1014E00058010020B80300200000000000000000A8
:1014F00000000000000000000000000000000000EC
:1015000030B490F800F020F007016FF0000C10F0FC
:10151000070491F820F040F048804FF000046FF08D
:101520000700D1E9002391F840F000F1080082FAA9
:101530004CF2A4FA8CF283FA4CF3A2FA8CF34BBB74
:10154000D1E9022382FA4CF200F10800A4FA8CF2ED
:1015500083FA4CF3A2FA8CF3E3B9D1E9042382FABB
:101560004CF200F10800A4FA8CF283FA4CF3A2FAD0
:101570008CF37BB9D1E9062301F1200182FA4CF208
:1015800000F10800A4FA8CF283FA4CF3A2FA8CF36F
:10159000002BC6D0002A04BF04301A4612BAB2FA91
:1015A00082F200EBD20030BC7047D1E9002304F096
:1015B0000305C4F100004FEAC50514F0040F91F8CB
:1015C00040F00CFA05F562EA05021CBF63EA050368
:1015D00062464FF00004AAE7044B054AC3F8042C06
:1015E00002F18832C3F8042C704700BF003002407B
:1015F00023016745034AD2F8103C43F00043C2F888
:10160000103C704700300240064BD3F8102C22F4F7
:101610004072C3F8102CD3F8102C42EA0022C3F811
:10162000102C70470030024070B50C4C05460E4639
:1016300000F0F8FA0020FFF7E7FFD4F8103C43F081
:101640000103C4F8103C2E7000F0ECFAD4F8103C02
:1016500023F00103C4F8103C70BD00BF003002400D
:1016600070B50C468D18461AAC4200D170BD3019C9
:1016700014F8011BFFF7D8FFF6E7000038B50D4658
:10168000044600F0CFFA2846174DFFF7BDFFD5F806
:10169000103C0B2C88BF043423F0F803C5F8103C31
:1016A00088BFE4B2D5F8103CE400E4B21C43C5F8AE
:1016B000104CD5F8103C43F00203C5F8103CD5F8A7
:1016C000103C43F48033C5F8103C00F0ABFAD5F879
:1016D000103C23F00203C5F8103CD5F8103C23F071
:1016E000F803C5F8103C38BD0030024081617047F6
:1016F000436901EA030221EA030141EA02418161EF
:1017000070472DE9F0410568C46800264FF0030ECC
:1017100043FA06F7FF070DD577000EFA07FC01FA2A
:1017200007F825EA0C0524EA0C0402FA07F748EA50
:1017300005053C430136102EEAD10560C460BDE8C2
:10174000F081F0B5066A456A00234FF00F0C42FAAB
:1017500003F4E70707D59C000CFA04F726EA07060E
:1017600001FA04F426430133082BF0D100234FF093
:101770000F0C03F1080442FA04F4E40707D59C00B7
:101780000CFA04F725EA070501FA04F425430133AE
:10179000082BEED106624562F0BD430903F1804398
:1017A00003F50E3300F01F001968012282400A433E
:1017B0001A60704706282BD8DFE800F0041E240AC0
:1017C00010161A00134BD3F80008C0F3406070479E
:1017D000104BD3F80008C0F3404070470D4BD3F8CE
:1017E0000008C0F3400070470A4BD3F87008F8E7D0
:1017F000084BD3F87408F4E7064BD3F80008C0F39D
:1018000040707047034BD3F80008C0F3C0607047C6
:10181000002070470030024008B502461046FFF72E
:10182000C9FF0028FAD008BD06280CD8DFE800F070
:1018300004282E0C12182000174AD2F8003843F062
:101840008073C2F800387047134AD2F8003843F466
:101850008033F6E7104AD2F8003843F00103F0E78E
:101860000D4AD2F8703843F00103C2F8703870475F
:10187000094AD2F8743843F00103C2F8743870474B
:10188000054AD2F8003843F08053DAE7024AD2F82A
:10189000003843F08063D4E70030024006280CD8BB
:1018A000DFE800F004282E0C12182000174AD2F8A6
:1018B000003823F08073C2F800387047134AD2F81A
:1018C000003823F48033F6E7104AD2F8003823F0CA
:1018D0000103F0E70D4AD2F8703823F00103C2F893
:1018E00070387047094AD2F8743823F00103C2F8FF
:1018F00074387047054AD2F8003823F08053DAE78D
:10190000024AD2F8003823F08063D4E70030024066
:10191000044AD2F8083823F003030343C2F8083816
:10192000704700BF00300240044AD2F8083823F460
:10193000604343EA4033C2F8083870470030024041
:10194000044AD2F8083823F4E05343EA8023C2F86B
:101950000838704700300240044AD2F8083823F0B3
:10196000F00343EA0013C2F8083870470030024021
:1019700010B547F6C07404EA811400F03F001B065E
:1019800003F0706304431C43029B5208022B02F1D4
:10199000FF324FEA024238BF022302F440321B07F3
:1019A00003F0E04314431C43014BC3F8044810BD4B
:1019B0000030024010B5029C022C38BF02242407DC
:1019C0001B0603F0706304F0E04452081C4300F06F
:1019D0003F0047F6C073013A03EA8113044312043F
:1019E0001C4302F44032034B144344F48004C3F814
:1019F000044810BD0030024073B504460420FFF7D0
:101A000013FFFFF709FF0020FFF782FFE379012BA7
:101A100004D10320FFF708FFFFF7FEFE40F61C008D
:101A2000FFF7BBFEE07B00F039F9207BFFF794FF66
:101A3000607BFFF785FFA07BFFF776FF0020FFF7B5
:101A40002DFFE679A5792078618822796379009560
:101A5000012E2FD1FFF7AEFF0020FFF7E5FEFFF7C5
:101A6000DBFEA3685A0528D500F0F0F8A3689B05B3
:101A700026D500F0FFF8A06800F0DCF80220FFF7A0
:101A800047FF124AD2F8083803F00C03082BF9D1AB
:101A90000F4B22691A600F4B62691A600E4BA269E4
:101AA0001A60E379012B0ED1042002B0BDE870402A
:101AB000FFF7F4BEFFF75CFFCEE700F0D1F8D5E703
:101AC00000F0E2F8D7E702B070BD00BF003002407E
:101AD0000C0000200800002004000020044B20F42B
:101AE000806098420CBF034B034B1868704700BFDF
:101AF00000100140040000200800002038B50C460A
:101B00000546FFF7EBFF00EB5403B3FBF4F3AB60C8
:101B100038BDC36808290CBF23F4805343F48053B5
:101B2000C3607047036923F440530B43036170475C
:101B3000C36823F4C0630B43C3607047C36823F0DA
:101B40000C030B43C3607047436923F440730B439A
:101B500043617047C36843F40053C360704738B5AE
:101B600004460D4600F013F829462046BDE83840EB
:101B700000F005B8C36843F02003C3607047C1F3A9
:101B80000801416070474068C0F30800704703686F
:101B90001B06FCD5704700680840003818BF0120BC
:101BA00070474FF0E02200F00400136923F00403B3
:101BB000034313617047000008B5B1FBF0F10B4B14
:101BC000994210D86FF07F43994226BFC908002080
:101BD0000420FFF7E6FF01394FF0E02321F07F41B9
:101BE0005961012008BD0020FCE700BFF7FFFF0797
:101BF0004FF0E022136943F00203136170474FF086
:101C0000E022136943F0010313617047044B42095A
:101C100003EB820300F01F00012282401A6070472C
:101C200000E100E0024AD2F80C3CDB03FBD4704731
:101C300000300240044AD2F8003C23F00F03034373
:101C4000C2F8003C704700BF00300240034AD2F89F
:101C5000003C43F48063C2F8003C7047003002400F
:101C6000034AD2F8003C23F48063C2F8003C70477A
:101C700000300240034AD2F8003C43F40073C2F83B
:101C8000003C704700300240034AD2F8003C23F485
:101C90000073C2F8003C704700300240024A1368EB
:101CA00060F38F3313607047007000400A220021F8
:101CB00000F0B2B8931E222B10B50C460CD80A2A9D
:101CC00003D000F0B7F8204610BD0028F9DA2D2324
:101CD00001F8013B4042F4E700230B70184610BDA9
:101CE000242B2DE9F84F43D8012B41D08046494899
:101CF0001F468E4675461EF801BB10F80B4014F0C7
:101D00000804F7D1BBF12D0F6FD0BBF12B0F08BF2B
:101D10009EF800B06FF0004908BF05F1020E73BBDA
:101D2000BBF1300F4BD00A273B460025B9FBF7F635
:101D3000284607FB169A05E03AD007FB00C00125AC
:101D40001EF801BBABF1300CBCF1090F06D9ABF1A9
:101D5000410CBCF1190F19D8ABF1370C63451EDDEE
:101D6000B5F1FF3FECD08642E6D24FF0FF35E7E712
:101D700000F0A6F9162303600020BDE8F88F102BB1
:101D8000D3D1BBF1300F23D01F46CEE7ABF1610CAE
:101D9000BCF1190F03D8ABF1570C6345E0DC6B1CA9
:101DA0002BD054B9002AE8D085BB1160BDE8F88F6C
:101DB000E245C2DA4FF0FF35C2E74042F2E79EF853
:101DC000003003F0DF03582B08D008273B46ACE770
:101DD0009EF8000000F0DF005828D5D110279EF8AB
:101DE00001B03B460EF1020E9FE79EF800B04FF0A7
:101DF000004905F1020E012491E72223C8F80030C2
:101E000032B10EF1FF3148461160CFE78146F8E765
:101E10004846B2E77921000810B4054C84461346C1
:101E200020685DF8044B0A466146FFF759BF00BFC2
:101E300010000020F0B5254FA2F1020E164605460F
:101E40000C460FCF8BB0EC46ACE80F000FCFACE8E0
:101E50000F0097E803004CF8040BBEF1220F8CF83A
:101E600000102DD804F1FF3E70464FF0000CB5FB7A
:101E7000F6F206FB12536B44614693F800C000F87B
:101E800001CF2B469E4201F1010C1546EFD90023EC
:101E900004F80C3089B1A44472461EF8010F1CF8F6
:101EA000015D8EF80050A4EB0E030232013B121BC1
:101EB0000B449A428CF80000EEDB20460BB0F0BDDC
:101EC0000023184623700BB0F0BD00BF502100085E
:101ED000830730B546D08418844604E003F8011B1C
:101EE0009D0704D09C46A4456346F7D130BD013A16
:101EF0000244A2EB0C02032A29D9CCB204EB04243D
:101F00000F2A04EB04442FD9A2F1100C2CF00F0C73
:101F100003F11005AC44C3E90044C3E902441033A3
:101F20006345F8D112F00C0F02F00F0E18D02EF00E
:101F3000030C9C44AEF104051A4642F8044B62457A
:101F4000FBD125F0030404330EF003022344002ADE
:101F5000CCD0C9B21A4403F8011B9342FBD130BD67
:101F60007246F4E70346C6E79646E0E78AB330B523
:101F700040EA0104A40786460B4617D1032A07D876
:101F800014E0043A23D01CF0803F20D1032A26D944
:101F9000DEF80040194653F8045BA4F1013CAC4262
:101FA00070462CEA040C0EF1040EEAD003780C788B
:101FB000013AA34208BF121807D00CE06BB110F829
:101FC000013F11F8014FA34205D19042F6D1002004
:101FD00030BD10467047181B30BD184630BD7046E6
:101FE0001946E3E740EA01039B0710B501D1032A34
:101FF00017D8844601F1FF3E07E01EF8011F03F8E1
:10200000011B541E29B19C4622466346002AF4D186
:1020100010BD9444002CFBD003F8011B6345FBD199
:1020200010BD8E468446DEF80040A4F1013323EA59
:10203000040313F0803F71460EF1040EDAD1043A26
:10204000032A4CF8044BEED87146D3E7024A1268D3
:102050000123503200F002B81000002018B370B510
:1020600086468C461EF8015B01E0A54214D01CF8A0
:10207000014B002CF9D1DDB176460C4616F8015B18
:1020800000E063B114F8013B9D42FAD14DB1002349
:102090008EF80030166070BD6BB17046E0E7B64652
:1020A000EAE72E46F6E710680028D8D100207047EE
:1020B0001560002070BDC2F800E0037070BD00BF65
:0C20C000014B1868704700BF10000020A2
:1020CC0024474E524D430000244750524D430000CC
:1020DC002C00000010005001040700000206000054
:1020EC000004000300BD010580DE800200BD010577
:1020FC000800600002040000030600000004000356
:10210C0000D8B805006CDC0200D8B80510005001EE
:10211C00020700000506000000050403007A030A0C
:10212C0080DE800200BD010510006801020800007D
:10213C0005060000000504030095BA0A40A5AE028E
:10214C00804A5D0530313233343536373839616287
:10215C00636465666768696A6B6C6D6E6F707172CB
:10216C00737475767778797A00000000002020204F
:10217C00202020202020282828282820202020202B
:10218C0020202020202020202020202020881010FB
:10219C001010101010101010101010101004040457
:1021AC000404040404040410101010101010414115
:1021BC004141414101010101010101010101010103
:1021CC000101010101010101101010101010424217
:1021DC0042424242020202020202020202020202D3
:1021EC000202020202020202101010102000000073
:1021FC0000000000000000000000000000000000D3
:10220C0000000000000000000000000000000000C2
:10221C0000000000000000000000000000000000B2
:10222C0000000000000000000000000000000000A2
:10223C000000000000000000000000000000000092
:10224C000000000000000000000000000000000082
:10225C000000000000000000000000000000000072
:10226C000000000000000000000000000000000062
:08227C0084F2FF7F0100000065
:10228400000004080024F4000024F4000024F400F6
:102294001800002000000000000000008002002060
:1022A400E8020020500300200000000000000000AD
:1022B400000000000000000000000000000000001A
:1022C400000000000000000000000000000000000A
:1022D40000000000000000000000000000000000FA
:1022E40000000000000000000000000000000000EA
:1022F40000000000000000000000000000000000DA
:1023040000000000000000000000000000000000C9
:1023140000000000000000000000000000000000B9
:1023240000000000000000000000000000000000A9
:1023340001000000000000000E33CDAB34126DE646
:10234400ECDE05000B0000000000000000000000AF
:102354000000000000000000000000000000000079
:102364000000000000000000000000000000000069
:102374000000000000000000000000000000000059
:102384000000000000000000000000000000000049
:102394000000000000000000000000000000000039
:1023A4000000000000000000000000000000000029
:1023B4000000000000000000000000000000000019
:1023C4000000000000000000000000000000000009
:0823D400000000000000000001
:040000050800148D4E
:00000001FF
