:020000040800F2
:1000000000000220B1170008A9170008A91700086E
:10001000A9170008A9170008A91700080000000088
:10002000000000000000000000000000A917000808
:10003000A917000800000000A917000875130008A0
:1000400000000000000000000000000000000000B0
:1000500000000000000000000000000000000000A0
:100060000000000000000000000000000000000090
:100070000000000000000000000000000000000080
:100080000000000000000000000000000000000070
:100090000000000000000000000000000000000060
:1000A0000000000000000000000000000000000050
:1000B0000000000000000000000000000000000040
:1000C0000000000000000000000000000000000030
:0C00D00000000000F913000845140008AF
:1001000080B500AF40F2026001F0E7FC4FF400530D
:10011000002201210A4801F094FC4FF4C06001F074
:10012000DCFC40F20C6300220221064801F089FC4D
:1001300040F20C620721034801F0A3FC00BF80BD20
:10014000000802400000024080B485B000AF786033
:100150000023FB6003E000BFFB680133FB607B68AA
:100160004FF4FA5202FB03F3FA689A42F3D300BF4A
:1001700000BF1437BD465DF8047B704780B48DB076
:1001800000AF78600B46FB707B6804331B782E2B26
:1001900001D1022300E00323FB600023FB62002364
:1001A000BB620FE0FA6A13469B0013445B001946DA
:1001B000BB6A7A6813441B78303B0B44FB62BB6A12
:1001C0000133BB62BA6AFB689A42EBDB00237B62B5
:1001D000FB683B620FE07A6A13469B0013445B00A6
:1001E00019463B6A7A6813441B78303B0B447B62A8
:1001F0003B6A01333B62FB6801333A6A9A42EADDAB
:100200000023FB61254BBB61FB6803337B6115E079
:100210007B697A6813441B78303BBA6902FB03F3AD
:10022000FA691344FB617B6901337B61BB691C4A3A
:1002300082FB03129210DB17D31ABB61FB680833F1
:100240007A699A42E4DDFB6A164A03FB02F27B6A92
:10025000144901FB03F3144981FB030119444911BB
:10026000DB17CB1A1A44FB690F4981FB03011944C0
:100270004911DB17CB1A13443B61FB78532B02D097
:10028000FB78572B02D13B695B423B613B691846C7
:100290003437BD465DF8047B704700BFA08601007F
:1002A0006766666640420F008988888880B5F0B02E
:1002B00000AF07F5E073A3F5DA73186007F5E07394
:1002C000A3F5DC73196007F5E073A3F5DE731A601C
:1002D00007F5E073A3F5DA7306225949186801F0AF
:1002E00037FF0346002B0ED007F5E073A3F5DA7352
:1002F00006225449186801F02BFF0346002B02D058
:10030000002300F057BD07F5E073A3F5DA7307F19A
:100310003800FF22196801F057FF07F5E073A3F5D5
:10032000C473002283F8FF200023C7F8B8310023EC
:10033000C7F8B4310023C7F8B0310023C7F8AC3197
:100340000023C7F8A8310023C7F8A4310023C7F859
:10035000A0310023C7F89C3107F138033A49184609
:1003600001F066FFC7F8BC0142E0D7F8B8310133AD
:10037000C7F8B831D7F8B831022B03D1D7F8BC3160
:10038000C7F8B431D7F8B831032B03D1D7F8BC3153
:10039000C7F8B031D7F8B831042B03D1D7F8BC3146
:1003A000C7F8AC31D7F8B831052B03D1D7F8BC3139
:1003B000C7F8A831D7F8B831062B03D1D7F8BC312C
:1003C000C7F8A431D7F8B831072B03D1D7F8BC311F
:1003D000C7F8A031D7F8B8310A2B03D1D7F8BC3110
:1003E000C7F89C311849002001F022FFC7F8BC0172
:1003F000D7F8BC31002BB8D1D7F8B031002B04D0DE
:10040000D7F8B0311B78412B02D0002300F0D2BCCA
:10041000D7F8AC31002B0FD0D7F8A431002B0BD07C
:10042000D7F8A831002B07D0D7F8A031002B03D084
:10043000D7F8B431002B09D1002300F0BBBC00BFBA
:10044000A4220008AC220008B4220008D7F8A83182
:100450001B781946D7F8AC01FFF790FEC7F8980152
:10046000D7F8A0311B781946D7F8A401FFF786FE0C
:10047000C7F894010023C7F890310023C7F88C31E6
:100480000023C7F88831D7F8B40101F0D9F9034641
:10049000052B37D9D7F8B4311B78A3F130021346B6
:1004A0009B0013445B001A46D7F8B43101331B7824
:1004B000303B1344C7F89031D7F8B43102331B787E
:1004C000A3F1300213469B0013445B001A46D7F891
:1004D000B43103331B78303B1344C7F88C31D7F861
:1004E000B43104331B78A3F1300213469B0013444C
:1004F0005B001A46D7F8B43105331B78303B134400
:10050000C7F88831D7F89C311B78A3F13002134625
:100510009B0013445B001A46D7F89C3101331B78CB
:10052000303B1344C7F85031D7F89C3102331B7865
:10053000A3F1300213469B0013445B001A46D7F820
:100540009C3103331B78303B1344C7F84C31D7F848
:100550009C3104331B78A3F1300213469B001344F3
:100560005B0003F5FA62D7F89C3105331B78303B0A
:100570001344C7F848310023C7F88431D7F88431D1
:1005800014331A4607F5E073A3F5DE731B68934234
:1005900040F2F881D7F84831DF4A82FB031292110A
:1005A000DB17D21ADD4B83FB02139910D317C91A3C
:1005B0000B469B000B445B00D11ACAB2D7F88431BA
:1005C000591CC7F88411194607F5E073A3F5DC73CD
:1005D0001B680B443032D2B21A70D7F84831D04A77
:1005E00082FB03125211DB17D21ACC4B83FB02138E
:1005F0009910D317C91A0B469B000B445B00D11A04
:10060000CAB2D7F88431591CC7F88411194607F5C6
:10061000E073A3F5DC731B680B443032D2B21A705E
:10062000D7F84831BD4A82FB03129210DB17D21A69
:10063000BA4B83FB02139910D317C91A0B469B00C0
:100640000B445B00D11ACAB2D7F88431591CC7F8E1
:100650008411194607F5E073A3F5DC731B680B449E
:100660003032D2B21A70D7F84821AC4B83FB021358
:100670009910D317C91A0B469B000B445B00D11A83
:10068000CAB2D7F88431591CC7F88411194607F546
:10069000E073A3F5DC731B680B443032D2B21A70DE
:1006A000D7F884315A1CC7F884211A4607F5E0733D
:1006B000A3F5DC731B6813442D221A70D7F84C3154
:1006C000964A82FB03129210DB17D31ADAB2D7F8DC
:1006D0008431591CC7F88411194607F5E073A3F556
:1006E000DC731B680B443032D2B21A70D7F84C213D
:1006F0008A4B83FB02139910D317C91A0B469B0030
:100700000B445B00D11ACAB2D7F88431591CC7F820
:100710008411194607F5E073A3F5DC731B680B44DD
:100720003032D2B21A70D7F884315A1CC7F88421FB
:100730001A4607F5E073A3F5DC731B6813442D22FA
:100740001A70D7F85031754A82FB03129210DB17EA
:10075000D31ADAB2D7F88431591CC7F88411194674
:1007600007F5E073A3F5DC731B680B443032D2B29B
:100770001A70D7F85021694B83FB02139910D317D5
:10078000C91A0B469B000B445B00D11ACAB2D7F8BA
:100790008431591CC7F88411194607F5E073A3F595
:1007A000DC731B680B443032D2B21A70D7F8843134
:1007B0005A1CC7F884211A4607F5E073A3F5DC73C9
:1007C0001B68134454221A70D7F89031534A82FBA5
:1007D00003129210DB17D31ADAB2D7F88431591CFE
:1007E000C7F88411194607F5E073A3F5DC731B689D
:1007F0000B443032D2B21A70D7F89021474B83FBAA
:1008000002139910D317C91A0B469B000B445B00C7
:10081000D11ACAB2D7F88431591CC7F884111946C5
:1008200007F5E073A3F5DC731B680B443032D2B2DA
:100830001A70D7F884315A1CC7F884211A4607F574
:10084000E073A3F5DC731B6813443A221A70D7F8DF
:100850008C31324A82FB03129210DB17D31ADAB2C0
:10086000D7F88431591CC7F88411194607F5E0738D
:10087000A3F5DC731B680B443032D2B21A70D7F880
:100880008C21264B83FB02139910D317C91A0B46F0
:100890009B000B445B00D11ACAB2D7F88431591CB3
:1008A000C7F88411194607F5E073A3F5DC731B68DC
:1008B0000B443032D2B21A70D7F884315A1CC7F8C0
:1008C00084211A4607F5E073A3F5DC731B68134413
:1008D0003A221A70D7F88831104A82FB031292101C
:1008E000DB17D31ADAB2D7F88431591CC7F8841150
:1008F000194607F5E073A3F5DC731B680B4430322F
:10090000D2B21A70D7F88821044B83FB02139910D6
:10091000D317C91A0B4605E0D34D621067666666A9
:100920001F85EB519B000B445B00D11ACAB2D7F86C
:100930008431591CC7F88411194607F5E073A3F5F3
:10094000DC731B680B443032D2B21A70D7F8843192
:100950005A1CC7F884211A4607F5E073A3F5DC7327
:100960001B6813445A221A70D7F884315A1CC7F8EE
:1009700084211A4607F5E073A3F5DC731B68134462
:100980002C221A70D7F89431002B12DAD7F8843160
:100990005A1CC7F884211A4607F5E073A3F5DC73E7
:1009A0001B6813442D221A70D7F894315B42C7F8A4
:1009B0009431D7F89431CB4A82FB03129214DB179F
:1009C000D31AC7F84431D7F89431C64A82FB0312D0
:1009D0009114DA178A1AC44901FB02F29B1AC7F86C
:1009E00040310023C7F88031D7F84431002B0BD1B8
:1009F000D7F880315A1CC7F8802107F5E072A2F5BC
:100A0000CA723021D15451E00023C7F87C31D7F8A5
:100A10004431C7F8783121E0D7F87C01431CC7F88E
:100A20007C31D7F87811B14B83FB01239A10CB1797
:100A3000D21A13469B0013445B00CA1A07F5E073F1
:100A4000A3F5D07343F82020D7F87831A74A82FB6A
:100A500003129210DB17D31AC7F87831D7F8783120
:100A6000002BD9D1D7F87C31013BC7F8743119E09C
:100A700007F5E073A3F5D073D7F8742153F822304B
:100A8000DAB2D7F88031591CC7F880113032D1B2B0
:100A900007F5E072A2F5CA72D154D7F87431013B60
:100AA000C7F87431D7F87431002BE1DAD7F8803108
:100AB0005A1CC7F8802107F5E072A2F5CA722E21F0
:100AC000D1548B4BC7F870310023C7F86C312CE040
:100AD000D7F84021D7F8703192FBF3F2834B83FBB8
:100AE00002139910D317C91A0B469B000B445B00E5
:100AF000D11ACAB2D7F88031591CC7F880113032E8
:100B0000D1B207F5E072A2F5CA72D154D7F86C31B0
:100B10000133C7F86C31D7F87031744A82FB031285
:100B20009210DB17D31AC7F87031D7F86C31052B48
:100B3000CEDD0023C7F8683119E0D7F884315A1C9C
:100B4000C7F884211A4607F5E073A3F5DC731B6828
:100B5000134407F5E072A2F5CA71D7F868210A4478
:100B600012781A70D7F868310133C7F86831D7F8AE
:100B70006821D7F880319A42DFDBD7F884315A1CDC
:100B8000C7F884211A4607F5E073A3F5DC731B68E8
:100B900013442C221A70D7F89831002B12DAD7F8A8
:100BA00084315A1CC7F884211A4607F5E073A3F56F
:100BB000DC731B6813442D221A70D7F898315B42FE
:100BC000C7F89831D7F89831464A82FB031292143D
:100BD000DB17D31AC7F83C31D7F89831414A82FB6A
:100BE00003129114DA178A1A3F4901FB02F29B1A89
:100BF000C7F838310023C7F88031D7F83C31002BD3
:100C00000BD1D7F880315A1CC7F8802107F5E07264
:100C1000A2F5CA723021D15451E00023C7F86431E3
:100C2000D7F83C31C7F8603121E0D7F86401431CA4
:100C3000C7F86431D7F860112C4B83FB01239A105D
:100C4000CB17D21A13469B0013445B00CA1A07F550
:100C5000E073A3F5D67343F82020D7F86031234A18
:100C600082FB03129210DB17D31AC7F86031D7F852
:100C70006031002BD9D1D7F86431013BC7F85C3122
:100C800019E007F5E073A3F5D673D7F85C2153F8A4
:100C90002230DAB2D7F88031591CC7F880113032CF
:100CA000D1B207F5E072A2F5CA72D154D7F85C311F
:100CB000013BC7F85C31D7F85C31002BE1DAD7F89B
:100CC00080315A1CC7F8802107F5E072A2F5CA727C
:100CD0002E21D154064BC7F870310023C7F8583184
:100CE00035E000BF83DE1B4340420F006766666647
:100CF000A0860100D7F83821D7F8703192FBF3F2C3
:100D00002F4B83FB02139910D317C91A0B469B0074
:100D10000B445B00D11ACAB2D7F88031591CC7F80E
:100D200080113032D1B207F5E072A2F5CA72D15407
:100D3000D7F858310133C7F85831D7F87031204A05
:100D400082FB03129210DB17D31AC7F87031D7F861
:100D50005831052BCEDD0023C7F8543119E0D7F800
:100D600084315A1CC7F884211A4607F5E073A3F5AD
:100D7000DC731B68134407F5E072A2F5CA71D7F85B
:100D800054210A4412781A70D7F854310133C7F845
:100D90005431D7F85421D7F880319A42DFDBD7F8A5
:100DA000843107F5E072A2F5DC7212681344002268
:100DB0001A700123184607F5E077BD4680BD00BFD5
:100DC00067666666F0B5ADF5137D00AF00F00CFB0D
:100DD000FFF796F94FF40051C04800F027FE00F0ED
:100DE00057FB00F08BFB0A21BD4800F0CFFB4FF40E
:100DF000FA70FFF7A9F90B21BA4800F0C7FB4FF4CE
:100E0000FA70FFF7A1F90E21B74800F0BFFB4FF4CD
:100E1000FA70FFF799F91021B44800F0B7FB4FF4CE
:100E2000FA70FFF791F91321B14800F0AFFB4FF4CE
:100E3000FA70FFF789F91621AE4800F0A7FB4FF4CE
:100E4000FA70FFF781F94023C7F8343200F0BEFA98
:100E5000C7E9900107F5D27380220021184601F0FE
:100E600029F907F51273A3F59273184680231A46E1
:100E7000002101F01FF90023C7F830320023C7F822
:100E80003C3207F51273A3F5D273184680231A4635
:100E9000002101F00FF912E0974B1A68D7F83432AD
:100EA0001344954A1360944B1B68944A934206D1AD
:100EB000062000F085F9904B914A1A6004E08E4BB1
:100EC0001B681B78FF2BE7D107F51273A3F5D673C8
:100ED0001A460023136053602823C7F82C32D7F832
:100EE0002C3207F19C010A22184601F07FF84FF4DA
:100EF00000517A4800F09CFD00F068FAD7E9902391
:100F0000841A61EB030540F6B8339C4275F1000387
:100F10004DD34FF40051714800F08AFD00F056FAAD
:100F2000C7E99001774B1B68184607F1A403D7F86F
:100F30003422194600F069F907F51273A3F5D2734C
:100F40001B78FF2B33D0C820FFF7FEF80A216E482C
:100F500000F01CFB07F19C03184600F071FC0246F0
:100F600007F19C031146184600F010FB2C2000F0FE
:100F7000FBFA07F1A403D7F82C12184600F006FB81
:100F80000D2000F0F1FA0A2000F0EEFA00F053FB19
:100F90000346002B0BD03B461A21184600F011FBEC
:100FA000584B1A68D7F834321344564A136000F08D
:100FB000D2FB0346002B9FD000F0BEFB034687F810
:100FC0002B3207F5D272D7F83C32134497F82B2214
:100FD0001A70D7F83C320133C7F83C3297F82B32FD
:100FE0000A2B89D107F5D272D7F83C32134400227C
:100FF0001A70D7F83C32012B13D9D7F83C32023B98
:1010000003F512733B4413F8A43C0D2B09D1D7F818
:101010003C32023B03F512733B44002203F8A42C3C
:1010200008E0D7F83C32013B03F512733B44002241
:1010300003F8A42CD7F83C32012B13D9D7F83C3253
:10104000023B03F512733B4413F8A43C0D2B09D16A
:10105000D7F83C32023B03F512733B44002203F8FD
:10106000A42C08E0D7F83C32013B03F512733B4453
:10107000002203F8A42C07F5D273184600F0E0FB19
:10108000024607F5D2731146184600F00FFB0A20FE
:1010900000F0FAFA07F5927107F5D273802218462C
:1010A000FFF704F907F59273184600F0C9FB0246F2
:1010B00007F592731146184600F0F8FA0A2000F07E
:1010C000E3FA07F59273184600F0BAFBC7F824025A
:1010D000D7F82432C7F8383226E000BF00080240B3
:1010E000B8220008C4220008D0220008E02200082C
:1010F000F42200080823000800000020000008086F
:1011000000000408040000202023000807F51273E3
:10111000A3F59272D7F83832134400221A70D7F828
:1011200038320133C7F83832D7F838321F2BEDD9AF
:1011300007F51273A3F59273002283F840200A206A
:1011400000F0A2FA1B4B1B681E4607F59273184667
:1011500000F076FB024607F592731946304600F020
:1011600041F8144B1B68184607F11C0380221946EE
:1011700000F04BF80F4B1A68D7F8343213440D4A7D
:1011800013600C4B1B68B3F5802F03D1072000F0D0
:1011900017F80AE0074B1B68074A934205D106205F
:1011A00000F00EF8034B054A1A600023C7F83C32E2
:1011B000A2E600BF000000200000080800000408AC
:1011C00080B582B000AF0346FB7100F0A5FBFB7950
:1011D0000021184600F0F2FB00F0ACFB00BF08371E
:1011E000BD4680BD80B584B000AFF860B9607A605C
:1011F00000F092FB7A68B968F86800F0D1FB00F063
:1012000099FB00BF1037BD4680BD80B487B000AFEA
:10121000F860B9607A60FB683B6100237B610AE09B
:101220003A697B691A44B9687B690B4412781A7071
:101230007B6901337B617A697B689A42F0D300BF96
:1012400000BF1C37BD465DF8047B704780B485B095
:1012500000AFF860B9607A60FB68BA681A60FB6832
:1012600000229A60FB680022DA607B685A1EFB68E5
:101270005A6000BF1437BD465DF8047B704780B4E8
:1012800083B000AF78607B689A687B68DB689A42BD
:101290000CBF01230023DBB218460C37BD465DF8B6
:1012A000047B704780B487B000AF78600B46FB705A
:1012B0007B689B687B617B68DB683B613B695A1C90
:1012C0007B685B681340FB60FA687B699A4201D1D6
:1012D000002309E07B681A683B691344FA781A70A6
:1012E0007B68FA68DA60012318461C37BD465DF852
:1012F000047B704780B485B000AF786039607B684C
:101300009B68FB607B68DB68BB60BA68FB689A42DD
:1013100001D1002310E07B681A68FB6813441A7837
:101320003B681A70FB685A1C7B685B681340FB6063
:101330007B68FA689A60012318461437BD465DF849
:10134000047B704780B483B000AF78607B689B6893
:1013500018460C37BD465DF8047B704780B483B0F7
:1013600000AF78607B68DB6818460C37BD465DF8D7
:10137000047B704780B400AF064BD3E90023501CB8
:1013800043F10001034BC3E9000100BFBD465DF816
:10139000047B70475801002080B500AF024800F080
:1013A000CBFC00BF80BD00BF2C23000880B500AF80
:1013B00005494FF47A7000F09FFD00F0C0FD00F089
:1013C000B7FD00BF80BD00BF00BD010580B400AF08
:1013D000044BD3E9002310461946BD465DF8047B53
:1013E000704700BF5801002080B500AFFFF7D4FF61
:1013F000FFF7DCFF00BF80BD80B582B000AF0821E1
:101400000E4800F068FD0346FB7120210B4800F0F8
:1014100062FD0346BB71BB79002B02D1FB79002B27
:1014200008D0064800F04FFD0346DBB219460448D9
:10143000FFF738FF00BF0837BD4680BD00100140F0
:101440006001002080B582B000AF08210E4800F096
:1014500042FD0346FB7120210B4800F03CFD034692
:10146000BB71BB79002B02D1FB79002B08D0064859
:1014700000F029FD0346DBB219460448FFF712FFCE
:1014800000BF0837BD4680BD00440040F001002089
:1014900080B500AF802216491648FFF7D7FE40F608
:1014A000840000F01AFB0C21134800F0E7FC002137
:1014B000114800F0E9FC08210F4800F0CAFC4FF485
:1014C000E1310D4800F0BAFC00210B4800F0D0FCDF
:1014D0000121094800F0C6FC074800F0EBFC25207C
:1014E00000F034FD044800F0D5FC00BF80BD00BF13
:1014F00070010020600100200010014080B500AFA5
:10150000802216491648FFF7A1FE40F6110000F0B0
:10151000E4FA0C21134800F0B1FC0021114800F05E
:10152000B3FC08210F4800F094FC4FF4E1310D4862
:1015300000F084FC00210B4800F09AFC01210948CE
:1015400000F090FC074800F0B5FC262000F0FEFCFF
:10155000044800F09FFC00BF80BD00BF00020020D7
:10156000F00100200044004080B582B000AF034687
:10157000FB71FB799BB21946034800F090FC00BF59
:101580000837BD4680BD00BF0010014080B584B063
:1015900000AF786039600023FB6009E07A68FB687F
:1015A00013441B781846FFF7DFFFFB680133FB602D
:1015B000FA683B689A42F1D300BF00BF1037BD46BE
:1015C00080BD80B584B000AF786039603B68002B87
:1015D00001D1002319E00023FB600FE07A68FB686B
:1015E000134419460B48FFF785FE034683F00103B9
:1015F000DBB2002B07D1FB680133FB60FA683B6864
:101600009A42EBD300E000BFFB6818461037BD4696
:1016100080BD00BF6001002080B582B000AF002314
:10162000FB71FB1D01211846FFF7CBFFFB79184624
:101630000837BD4680BD80B500AF0848FFF71FFEE4
:101640000346002B14BF01230023DBB283F0010308
:10165000DBB203F00103DBB2184680BD600100205D
:1016600080B500AF0248FFF779FE0346184680BDFB
:101670006001002080B500AF0248FFF763FE03461B
:10168000184680BD6001002080B582B000AF0346DF
:10169000FB71FB799BB21946034800F000FC00BFC8
:1016A0000837BD4680BD00BF0044004080B584B00F
:1016B00000AF786039600023FB6009E07A68FB685E
:1016C00013441B781846FFF7DFFFFB680133FB600C
:1016D000FA683B689A42F1D300BF00BF1037BD469D
:1016E00080BD80B584B000AF786039603B68002B66
:1016F00001D1002319E00023FB600FE07A68FB684A
:10170000134419460B48FFF7F5FD034683F0010328
:10171000DBB2002B07D1FB680133FB60FA683B6842
:101720009A42EBD300E000BFFB6818461037BD4675
:1017300080BD00BFF001002080B582B000AF002363
:10174000FB71FB1D01211846FFF7CBFFFB79184603
:101750000837BD4680BD80B500AF0848FFF78FFD54
:101760000346002B14BF01230023DBB283F00103E7
:10177000DBB203F00103DBB2184680BDF0010020AC
:1017800080B500AF0248FFF7E9FD0346184680BD6B
:10179000F001002080B500AF0248FFF7D3FD0346FB
:1017A000184680BDF001002080B400AF00BFFDE707
:1017B00080B582B000AF104B7B60104B3B6007E000
:1017C0007A68131D7B603B68191D396012681A60C6
:1017D0003B680B4A9342F3D30A4B3B6004E03B68FF
:1017E0001A1D3A6000221A603B68074A9342F6D3FA
:1017F000FFF7E8FA00BFFDE7CC2300080000002057
:101800005801002058010020B8030020000000000B
:1018100000000000000000000000000000000000C8
:1018200000000000000000000000000000000000B8
:1018300000000000000000000000000000000000A8
:1018400030B490F800F020F007016FF0000C10F0B9
:10185000070491F820F040F048804FF000046FF04A
:101860000700D1E9002391F840F000F1080082FA66
:101870004CF2A4FA8CF283FA4CF3A2FA8CF34BBB31
:10188000D1E9022382FA4CF200F10800A4FA8CF2AA
:1018900083FA4CF3A2FA8CF3E3B9D1E9042382FA78
:1018A0004CF200F10800A4FA8CF283FA4CF3A2FA8D
:1018B0008CF37BB9D1E9062301F1200182FA4CF2C5
:1018C00000F10800A4FA8CF283FA4CF3A2FA8CF32C
:1018D000002BC6D0002A04BF04301A4612BAB2FA4E
:1018E00082F200EBD20030BC7047D1E9002304F053
:1018F0000305C4F100004FEAC50514F0040F91F888
:1019000040F00CFA05F562EA05021CBF63EA050324
:1019100062464FF00004AAE7044B054AC3F8042CC2
:1019200002F18832C3F8042C704700BF0030024037
:1019300023016745034AD2F8103C43F00043C2F844
:10194000103C704700300240064BD3F8102C22F4B4
:101950004072C3F8102CD3F8102C42EA0022C3F8CE
:10196000102C70470030024070B50C4C05460E46F6
:1019700000F0F8FA0020FFF7E7FFD4F8103C43F03E
:101980000103C4F8103C2E7000F0ECFAD4F8103CBF
:1019900023F00103C4F8103C70BD00BF00300240CA
:1019A00070B50C468D18461AAC4200D170BD301986
:1019B00014F8011BFFF7D8FFF6E7000038B50D4615
:1019C000044600F0CFFA2846174DFFF7BDFFD5F8C3
:1019D000103C0B2C88BF043423F0F803C5F8103CEE
:1019E00088BFE4B2D5F8103CE400E4B21C43C5F86B
:1019F000104CD5F8103C43F00203C5F8103CD5F864
:101A0000103C43F48033C5F8103C00F0ABFAD5F835
:101A1000103C23F00203C5F8103CD5F8103C23F02D
:101A2000F803C5F8103C38BD0030024081617047B2
:101A3000436901EA030221EA030141EA02418161AB
:101A400070472DE9F0410568C46800264FF0030E89
:101A500043FA06F7FF070DD577000EFA07FC01FAE7
:101A600007F825EA0C0524EA0C0402FA07F748EA0D
:101A700005053C430136102EEAD10560C460BDE87F
:101A8000F081F0B5066A456A00234FF00F0C42FA68
:101A900003F4E70707D59C000CFA04F726EA0706CB
:101AA00001FA04F426430133082BF0D100234FF050
:101AB0000F0C03F1080442FA04F4E40707D59C0074
:101AC0000CFA04F725EA070501FA04F4254301336B
:101AD000082BEED106624562F0BD430903F1804355
:101AE00003F50E3300F01F001968012282400A43FB
:101AF0001A60704706282BD8DFE800F0041E240A7D
:101B000010161A00134BD3F80008C0F3406070475A
:101B1000104BD3F80008C0F3404070470D4BD3F88A
:101B20000008C0F3400070470A4BD3F87008F8E78C
:101B3000084BD3F87408F4E7064BD3F80008C0F359
:101B400040707047034BD3F80008C0F3C060704783
:101B5000002070470030024008B502461046FFF7EB
:101B6000C9FF0028FAD008BD06280CD8DFE800F02D
:101B700004282E0C12182000174AD2F8003843F01F
:101B80008073C2F800387047134AD2F8003843F423
:101B90008033F6E7104AD2F8003843F00103F0E74B
:101BA0000D4AD2F8703843F00103C2F8703870471C
:101BB000094AD2F8743843F00103C2F87438704708
:101BC000054AD2F8003843F08053DAE7024AD2F8E7
:101BD000003843F08063D4E70030024006280CD878
:101BE000DFE800F004282E0C12182000174AD2F863
:101BF000003823F08073C2F800387047134AD2F8D7
:101C0000003823F48033F6E7104AD2F8003823F086
:101C10000103F0E70D4AD2F8703823F00103C2F84F
:101C200070387047094AD2F8743823F00103C2F8BB
:101C300074387047054AD2F8003823F08053DAE749
:101C4000024AD2F8003823F08063D4E70030024023
:101C5000044AD2F8083823F003030343C2F80838D3
:101C6000704700BF00300240044AD2F8083823F41D
:101C7000604343EA4033C2F80838704700300240FE
:101C8000044AD2F8083823F4E05343EA8023C2F828
:101C90000838704700300240044AD2F8083823F070
:101CA000F00343EA0013C2F80838704700300240DE
:101CB00010B547F6C07404EA811400F03F001B061B
:101CC00003F0706304431C43029B5208022B02F191
:101CD000FF324FEA024238BF022302F440321B07B0
:101CE00003F0E04314431C43014BC3F8044810BD08
:101CF0000030024010B5029C022C38BF0224240799
:101D00001B0603F0706304F0E04452081C4300F02B
:101D10003F0047F6C073013A03EA811304431204FB
:101D20001C4302F44032034B144344F48004C3F8D0
:101D3000044810BD0030024073B504460420FFF78C
:101D400013FFFFF709FF0020FFF782FFE379012B64
:101D500004D10320FFF708FFFFF7FEFE40F61C004A
:101D6000FFF7BBFEE07B00F039F9207BFFF794FF23
:101D7000607BFFF785FFA07BFFF776FF0020FFF772
:101D80002DFFE679A579207861882279637900951D
:101D9000012E2FD1FFF7AEFF0020FFF7E5FEFFF782
:101DA000DBFEA3685A0528D500F0F0F8A3689B0570
:101DB00026D500F0FFF8A06800F0DCF80220FFF75D
:101DC00047FF124AD2F8083803F00C03082BF9D168
:101DD0000F4B22691A600F4B62691A600E4BA269A1
:101DE0001A60E379012B0ED1042002B0BDE87040E7
:101DF000FFF7F4BEFFF75CFFCEE700F0D1F8D5E7C0
:101E000000F0E2F8D7E702B070BD00BF003002403A
:101E1000100000200C00002008000020044B20F4DB
:101E2000806098420CBF034B034B1868704700BF9B
:101E300000100140080000200C00002038B50C46BE
:101E40000546FFF7EBFF00EB5403B3FBF4F3AB6085
:101E500038BDC36808290CBF23F4805343F4805372
:101E6000C3607047036923F440530B430361704719
:101E7000C36823F4C0630B43C3607047C36823F097
:101E80000C030B43C3607047436923F440730B4357
:101E900043617047C36843F40053C360704738B56B
:101EA00004460D4600F013F829462046BDE83840A8
:101EB00000F005B8C36843F02003C3607047C1F366
:101EC0000801416070474068C0F30800704703682C
:101ED0001B06FCD5704700680840003818BF012079
:101EE00070474FF0E02200F00400136923F0040370
:101EF000034313617047000008B5B1FBF0F10B4BD1
:101F0000994210D86FF07F43994226BFC90800203C
:101F10000420FFF7E6FF01394FF0E02321F07F4175
:101F20005961012008BD0020FCE700BFF7FFFF0753
:101F30004FF0E022136943F00203136170474FF042
:101F4000E022136943F0010313617047044B420917
:101F500003EB820300F01F00012282401A607047E9
:101F600000E100E0024AD2F80C3CDB03FBD47047EE
:101F700000300240044AD2F8003C23F00F03034330
:101F8000C2F8003C704700BF00300240034AD2F85C
:101F9000003C43F48063C2F8003C704700300240CC
:101FA000034AD2F8003C23F48063C2F8003C704737
:101FB00000300240034AD2F8003C43F40073C2F8F8
:101FC000003C704700300240034AD2F8003C23F442
:101FD0000073C2F8003C704700300240024A1368A8
:101FE00060F38F331360704700700040931E222B04
:101FF00010B50C460CD80A2A03D000F00DF8204684
:1020000010BD0028F9DA2D2301F8013B4042F4E726
:1020100000230B70184610BDF0B5254FA2F1020E3B
:10202000164605460C460FCF8BB0EC46ACE80F00C9
:102030000FCFACE80F0097E803004CF8040BBEF19B
:10204000220F8CF800102DD804F1FF3E70464FF09F
:10205000000CB5FBF6F206FB12536B44614693F895
:1020600000C000F801CF2B469E4201F1010C15463D
:10207000EFD9002304F80C3089B1A44472461EF84D
:10208000010F1CF8015D8EF80050A4EB0E03023224
:10209000013B121B0B449A428CF80000EEDB2046F9
:1020A0000BB0F0BD0023184623700BB0F0BD00BF8D
:1020B0009C230008830730B546D08418844604E08A
:1020C00003F8011B9D0704D09C46A4456346F7D145
:1020D00030BD013A0244A2EB0C02032A29D9CCB24A
:1020E00004EB04240F2A04EB04442FD9A2F1100CB2
:1020F0002CF00F0C03F11005AC44C3E90044C3E914
:10210000024410336345F8D112F00C0F02F00F0EA9
:1021100018D02EF0030C9C44AEF104051A4642F888
:10212000044B6245FBD125F0030404330EF0030297
:102130002344002ACCD0C9B21A4403F8011B9342AD
:10214000FBD130BD7246F4E70346C6E79646E0E7AA
:102150008AB330B540EA0104A40786460B4617D17E
:10216000032A07D814E0043A23D01CF0803F20D182
:10217000032A26D9DEF80040194653F8045BA4F17F
:10218000013CAC4270462CEA040C0EF1040EEAD07D
:1021900003780C78013AA34208BF121807D00CE06C
:1021A0006BB110F8013F11F8014FA34205D19042E5
:1021B000F6D1002030BD10467047181B30BD1846C0
:1021C00030BD70461946E3E740EA01039B0710B5AE
:1021D00001D1032A17D8844601F1FF3E07E01EF81B
:1021E000011F03F8011B541E29B19C462246634679
:1021F000002AF4D110BD9444002CFBD003F8011B3D
:102200006345FBD110BD8E468446DEF80040A4F144
:10221000013323EA040313F0803F71460EF1040EEC
:10222000DAD1043A032A4CF8044BEED87146D3E7CE
:10223000024A12680123503200F002B81400002054
:1022400018B370B586468C461EF8015B01E0A542C6
:1022500014D01CF8014B002CF9D1DDB176460C46A8
:1022600016F8015B00E063B114F8013B9D42FAD11E
:102270004DB100238EF80030166070BD6BB1704612
:10228000E0E7B646EAE72E46F6E710680028D8D120
:10229000002070471560002070BDC2F800E0037098
:0422A00070BD00BF4E
:1022A40024474E524D430000244750524D430000F2
:1022B4002C00000041542B52455345540D0A000094
:1022C40041542B4D4F44453D300D0A0041542B41A0
:1022D4004444524553533D310D0A000041542B4EA2
:1022E4004554574F524B49443D350D0A00000000F8
:1022F40041542B42414E443D383638303030303032
:10230400300D0A0041542B504152414D4554455221
:102314003D392C372C312C340D0A000041542B53F9
:10232400454E443D322C00001000500104070000CB
:10233400020600000004000300BD010580DE8002E7
:1023440000BD01050800600002040000030600004F
:102354000004000300D8B805006CDC0200D8B805FE
:1023640010005001020700000506000000050403E8
:10237400007A030A80DE800200BD010510006801B6
:102384000208000005060000000504030095BA0ACF
:1023940040A5AE02804A5D053031323334353637DC
:1023A40038396162636465666768696A6B6C6D6E0F
:1023B4006F707172737475767778797A00000000A3
:0823C4007CF4FF7F0100000022
:1023CC0000000408000004080024F4000024F400B9
:1023DC000024F400180000200000000080020020FF
:1023EC00E802002050030020000000000000000064
:1023FC0000000000000000000000000000000000D1
:10240C0000000000000000000000000000000000C0
:10241C0000000000000000000000000000000000B0
:10242C0000000000000000000000000000000000A0
:10243C000000000000000000000000000000000090
:10244C000000000000000000000000000000000080
:10245C000000000000000000000000000000000070
:10246C000000000000000000000000000000000060
:10247C0001000000000000000E33CDAB34126DE6FD
:10248C00ECDE05000B000000000000000000000066
:10249C000000000000000000000000000000000030
:1024AC000000000000000000000000000000000020
:1024BC000000000000000000000000000000000010
:1024CC000000000000000000000000000000000000
:1024DC0000000000000000000000000000000000F0
:1024EC0000000000000000000000000000000000E0
:1024FC0000000000000000000000000000000000D0
:10250C0000000000000000000000000000000000BF
:08251C000000000000000000B7
:04000005080017B127
:00000001FF
