:020000040800F2
:10000000000002206D17000865170008651700083A
:100010006517000865170008651700080000000054
:10002000000000000000000000000000651700084C
:10003000651700080000000065170008311300086C
:1000400000000000000000000000000000000000B0
:1000500000000000000000000000000000000000A0
:100060000000000000000000000000000000000090
:100070000000000000000000000000000000000080
:100080000000000000000000000000000000000070
:100090000000000000000000000000000000000060
:1000A0000000000000000000000000000000000050
:1000B0000000000000000000000000000000000040
:1000C0000000000000000000000000000000000030
:0C00D00000000000B51300080114000837
:1001000080B500AF40F2026001F0C7FC4FF400532D
:10011000002201210A4801F074FC4FF4C06001F094
:10012000BCFC40F20C6300220221064801F069FC8D
:1001300040F20C620721034801F083FC00BF80BD40
:10014000000802400000024080B485B000AF786033
:100150000023FB6003E000BFFB680133FB607B68AA
:100160004FF4FA5202FB03F3FA689A42F3D300BF4A
:1001700000BF1437BD465DF8047B704780B5F4B00E
:1001800000AF07F5E873A3F5E273186007F5E873AD
:10019000A3F5E473196007F5E873A3F5E6731A6035
:1001A00007F5E873A3F5E27306225449186802F0D4
:1001B0005DF80346002B0ED007F5E873A3F5E27354
:1001C00006224F49186802F051F80346002B02D06E
:1001D000002300F08ABD07F5E873A3F5E27307F189
:1001E00038004FF48072196802F07CF807F5E87364
:1001F000A3F5CC73002283F8FF200023C7F8C83191
:100200000023C7F8C4310023C7F8C0310023C7F862
:10021000BC310023C7F8B8310023C7F8B43100233C
:10022000C7F8B03107F138033649184602F08EF8A6
:10023000C7F8CC013AE0D7F8C8310133C7F8C83164
:10024000D7F8C831022B03D1D7F8CC31C7F8C43165
:10025000D7F8C831032B03D1D7F8CC31C7F8C03158
:10026000D7F8C831042B03D1D7F8CC31C7F8BC314B
:10027000D7F8C831052B03D1D7F8CC31C7F8B8313E
:10028000D7F8C831062B03D1D7F8CC31C7F8B43131
:10029000D7F8C831072B03D1D7F8CC31C7F8B03124
:1002A0001849002002F052F8C7F8CC01D7F8CC3139
:1002B000002BC0D1D7F8C031002B04D0D7F8C03103
:1002C0001B78412B02D0002300F00FBDD7F8BC31C2
:1002D000002B0FD0D7F8B431002B0BD0D7F8B831A2
:1002E000002B07D0D7F8B031002B03D0D7F8C4319A
:1002F000002B09D1002300F0F8BC00BFCC2300087C
:10030000D4230008DC230008D7F8BC0101F04EFE1E
:100310000346E14A82FB03125211DB17D31AC7F8D6
:100320006831D7F8BC0101F041FE0346DA4A82FB8E
:1003300003125111DA178A1A642101FB02F29B1A87
:10034000C7F86431D7F86831D44A03FB02F2D7F812
:100350006431D24901FB03F3D14981FB0301194404
:100360004911DB17CB1A1344C7F8AC31D7F8B831B1
:100370001B78532B04D1D7F8AC315B42C7F8AC31B2
:10038000D7F8B40101F012FE0346C34A82FB031200
:100390005211DB17D31AC7F86031D7F8B40101F056
:1003A00005FE0346BC4A82FB03125111DA178A1A72
:1003B000642101FB02F29B1AC7F85C31D7F8603167
:1003C000B64A03FB02F2D7F85C31B44901FB03F3F0
:1003D000B34981FB030119444911DB17CB1A1344BC
:1003E000C7F8A831D7F8B0311B78572B04D1D7F80C
:1003F000A8315B42C7F8A8310023C7F8A431002315
:10040000C7F8A0310023C7F89C31D7F8C40101F028
:10041000F7F90346052B37D9D7F8C4311B78A3F178
:10042000300213469B0013445B001A46D7F8C431D0
:1004300001331B78303B1344C7F8A431D7F8C431DB
:1004400002331B78A3F1300213469B0013445B0078
:100450001A46D7F8C43103331B78303B1344C7F82E
:10046000A031D7F8C43104331B78A3F1300213460E
:100470009B0013445B001A46D7F8C43105331B7840
:10048000303B1344C7F89C3140F2E973C7F8583148
:100490000923C7F854310823C7F850310023C7F89F
:1004A0009831D7F8983114331A4607F5E873A3F555
:1004B000E6731B68934240F2FD81D7F85831794AC0
:1004C00082FB03129211DB17D21A774B83FB0213C4
:1004D0009910D317C91A0B469B000B445B00D11A25
:1004E000CAB2D7F89831591CC7F89811194607F5C0
:1004F000E873A3F5E4731B680B443032D2B21A7070
:10050000D7F85831644A82FB03125211DB17D21A12
:10051000654B83FB02139910D317C91A0B469B0036
:100520000B445B00D11ACAB2D7F89831591CC7F8EE
:100530009811194607F5E873A3F5E4731B680B449B
:100540003032D2B21A70D7F85831574A82FB0312B0
:100550009210DB17D21A544B83FB02139910D31756
:10056000C91A0B469B000B445B00D11ACAB2D7F8DC
:100570009831591CC7F89811194607F5E873A3F587
:10058000E4731B680B443032D2B21A70D7F858218A
:10059000454B83FB02139910D317C91A0B469B00D6
:1005A0000B445B00D11ACAB2D7F89831591CC7F86E
:1005B0009811194607F5E873A3F5E4731B680B441B
:1005C0003032D2B21A70D7F898315A1CC7F8982135
:1005D0001A4607F5E873A3F5E4731B6813442D224C
:1005E0001A70D7F85431304A82FB03129210DB178D
:1005F000D31ADAB2D7F89831591CC7F898111946AE
:1006000007F5E873A3F5E4731B680B443032D2B2EC
:100610001A70D7F85421244B83FB02139910D31777
:10062000C91A0B469B000B445B00D11ACAB2D7F81B
:100630009831591CC7F89811194607F5E873A3F5C6
:10064000E4731B680B443032D2B21A70D7F8983179
:100650005A1CC7F898211A4607F5E873A3F5E47306
:100660001B6813442D221A70D7F850310E4A82FBB2
:1006700003129210DB17D31ADAB2D7F89831591C4B
:10068000C7F89811194607F5E873A3F5E4731B68DA
:100690000B4430320AE000BF1F85EB5140420F008F
:1006A00089888888D34D621067666666D2B21A70F0
:1006B000D7F85021CA4B83FB02139910D317C91ADC
:1006C0000B469B000B445B00D11ACAB2D7F8983195
:1006D000591CC7F89811194607F5E873A3F5E47398
:1006E0001B680B443032D2B21A70D7F898315A1CBA
:1006F000C7F898211A4607F5E873A3F5E4731B6859
:10070000134454221A70D7F8A431B54A82FB03125D
:100710009210DB17D31ADAB2D7F89831591CC7F800
:100720009811194607F5E873A3F5E4731B680B44A9
:100730003032D2B21A70D7F8A421A94B83FB02132E
:100740009910D317C91A0B469B000B445B00D11AB2
:10075000CAB2D7F89831591CC7F89811194607F54D
:10076000E873A3F5E4731B680B443032D2B21A70FD
:10077000D7F898315A1CC7F898211A4607F5E8733C
:10078000A3F5E4731B6813443A221A70D7F8A0311A
:10079000934A82FB03129210DB17D31ADAB2D7F80E
:1007A0009831591CC7F89811194607F5E873A3F555
:1007B000E4731B680B443032D2B21A70D7F8A02110
:1007C000874B83FB02139910D317C91A0B469B0062
:1007D0000B445B00D11ACAB2D7F89831591CC7F83C
:1007E0009811194607F5E873A3F5E4731B680B44E9
:1007F0003032D2B21A70D7F898315A1CC7F8982103
:100800001A4607F5E873A3F5E4731B6813443A220C
:100810001A70D7F89C31724A82FB03129210DB17D0
:10082000D31ADAB2D7F89831591CC7F8981119467B
:1008300007F5E873A3F5E4731B680B443032D2B2BA
:100840001A70D7F89C21664B83FB02139910D317BB
:10085000C91A0B469B000B445B00D11ACAB2D7F8E9
:100860009831591CC7F89811194607F5E873A3F594
:10087000E4731B680B443032D2B21A70D7F8983147
:100880005A1CC7F898211A4607F5E873A3F5E473D4
:100890001B6813445A221A70D7F898315A1CC7F8AB
:1008A00098211A4607F5E873A3F5E4731B6813440F
:1008B0002C221A70D7F8A831002BB8BF5B42C7F8BA
:1008C0004C31D7F84C31474A82FB03129214DB17A4
:1008D000D31AC7F84831D7F84C31424A82FB031289
:1008E0009114DA178A1A404901FB02F29B1AC7F8E1
:1008F00044310023C7F89431D7F84831C7F8903114
:10090000D7F89031002B0BD1D7F894315A1CC7F887
:10091000942107F5E872A2F5D2723021D1544DE04E
:100920000023C7F88C3121E0D7F88C01431CC7F8AD
:100930008C31D7F890112A4B83FB01239A10CB17E7
:10094000D21A13469B0013445B00CA1A07F5E873DA
:10095000A3F5D87343F82020D7F89031204A82FBC2
:1009600003129210DB17D31AC7F89031D7F89031E1
:10097000002BD9DCD7F88C31013BC7F8883119E05E
:1009800007F5E873A3F5D873D7F8882153F8223018
:10099000DAB2D7F89431591CC7F894113032D1B279
:1009A00007F5E872A2F5D272D154D7F88831013B2D
:1009B000C7F88831D7F88831002BE1DAD7F89431BD
:1009C0005A1CC7F8942107F5E872A2F5D2722E21BD
:1009D000D154064BC7F884310023C7F8803134E086
:1009E0006766666683DE1B4340420F00A0860100F7
:1009F000D7F84421D7F8843192FBF3F2BD4B83FB47
:100A000002139910D317C91A0B469B000B445B00C5
:100A1000D11ACAB2D7F89431591CC7F894113032A0
:100A2000D1B207F5E872A2F5D272D154D7F8843169
:100A3000B04A82FB03129210DB17D31AC7F8843135
:100A4000D7F880310133C7F88031D7F88031052BD2
:100A5000CEDDD7F8A831002B0DDAD7F898315A1C23
:100A6000C7F898211A4607F5E873A3F5E4731B68E5
:100A700013442D221A700023C7F87C3119E0D7F8EF
:100A800098315A1CC7F898211A4607F5E873A3F560
:100A9000E4731B68134407F5E872A2F5D271D7F826
:100AA0007C210A4412781A70D7F87C310133C7F8D8
:100AB0007C31D7F87C21D7F894319A42DFDBD7F824
:100AC00098315A1CC7F898211A4607F5E873A3F520
:100AD000E4731B6813442C221A70D7F8AC31002B36
:100AE000B8BF5B42C7F84031D7F84031824A82FB39
:100AF00003129214DB17D31AC7F83C31D7F84031F0
:100B00007D4A82FB03129114DA178A1A7B4901FB92
:100B100002F29B1AC7F838310023C7F89431D7F88E
:100B20003C31C7F89031D7F89031002B0BD1D7F872
:100B300094315A1CC7F8942107F5E872A2F5D272D5
:100B40003021D1544DE00023C7F8783121E0D7F8A7
:100B50007801431CC7F87831D7F89011654B83FBB7
:100B600001239A10CB17D21A13469B0013445B0043
:100B7000CA1A07F5E873A3F5DE7343F82020D7F807
:100B800090315C4A82FB03129210DB17D31AC7F82C
:100B90009031D7F89031002BD9DCD7F87831013B70
:100BA000C7F8743119E007F5E873A3F5DE73D7F8D9
:100BB000742153F82230DAB2D7F89431591CC7F8AF
:100BC00094113032D1B207F5E872A2F5D272D15445
:100BD000D7F87431013BC7F87431D7F87431002B62
:100BE000E1DAD7F894315A1CC7F8942107F5E87276
:100BF000A2F5D2722E21D154414BC7F88431002383
:100C0000C7F870312CE0D7F83821D7F8843192FB3F
:100C1000F3F2384B83FB02139910D317C91A0B4612
:100C20009B000B445B00D11ACAB2D7F89431591C0F
:100C3000C7F894113032D1B207F5E872A2F5D2723A
:100C4000D154D7F884312B4A82FB03129210DB1760
:100C5000D31AC7F88431D7F870310133C7F870312F
:100C6000D7F87031052BCEDDD7F8AC31002B0DDA7B
:100C7000D7F898315A1CC7F898211A4607F5E87337
:100C8000A3F5E4731B6813442D221A700023C7F8E0
:100C90006C3119E0D7F898315A1CC7F898211A46D8
:100CA00007F5E873A3F5E4731B68134407F5E872CE
:100CB000A2F5D271D7F86C210A4412781A70D7F8CD
:100CC0006C310133C7F86C31D7F86C21D7F8943107
:100CD0009A42DFDBD7F8983107F5E872A2F5E472A3
:100CE0001268134400221A700123184607F5E877AA
:100CF000BD4680BD6766666683DE1B4340420F00CB
:100D0000A0860100F0B5ADF50F7D00AF00F04AFB05
:100D1000FFF7F6F94FF40051BA4800F067FE00F013
:100D200095FB00F0C9FB0A21B74800F00DFC4FF419
:100D3000FA70FFF709FA0B21B44800F005FC4FF4F4
:100D4000FA70FFF701FA0E21B14800F0FDFB4FF4F5
:100D5000FA70FFF7F9F91021AE4800F0F5FB4FF4F7
:100D6000FA70FFF7F1F91321AB4800F0EDFB4FF4F7
:100D7000FA70FFF7E9F91621A84800F0E5FB4FF4F7
:100D8000FA70FFF7E1F94023C7F8243200F0FCFACB
:100D9000C7E98C0107F5C67380220021184601F0CF
:100DA00017FA07F50E73A3F59673184680231A46B3
:100DB000002101F00DFA0023C7F820320023C7F804
:100DC0002C3207F50E73A3F5D673184680231A4606
:100DD000002101F0FDF912E0914B1A68D7F8243296
:100DE00013448F4A13608E4B1B688E4A934206D180
:100DF000062000F0C3F98A4B8B4A1A6004E0884B46
:100E00001B681B78FF2BE7D107F50E73A3F5DA7388
:100E10001A460023136053602823C7F81C32D7F802
:100E20001C3207F184010A22184601F0C3F84FF47E
:100E30000051744800F0DCFD00F0A6FAD7E98C23DD
:100E4000841A61EB030540F6B8339C4275F1000348
:100E500047D34FF400516B4800F0CAFD00F094FAFC
:100E6000C7E98C01714B1B68184607F18C03D7F852
:100E70002422194600F0A7F907F50E73A3F5D673DF
:100E80001B78FF2B2DD01321694800F05DFBC82093
:100E9000FFF75AF90A21674800F056FB07F184036F
:100EA000184600F0ADFC024607F1840311461846CF
:100EB00000F04AFB2C2000F035FB07F18C03D7F83B
:100EC0001C12184600F040FB0D2000F02BFB0A20FE
:100ED00000F028FB554B1A68D7F824321344534AC4
:100EE000136000F016FC0346002BA5D000F002FCB6
:100EF000034687F81B3207F5C672D7F82C32134425
:100F000097F81B221A70D7F82C320133C7F82C320D
:100F100097F81B320A2B8FD107F5C672D7F82C32FF
:100F2000134400221A70D7F82C32012B13D9D7F8AA
:100F30002C32023B03F50E733B4413F8AC3C0D2BF3
:100F400009D1D7F82C32023B03F50E733B44002243
:100F500003F8AC2C08E0D7F82C32013B03F50E73F4
:100F60003B44002203F8AC2CD7F82C32012B13D9C8
:100F7000D7F82C32023B03F50E733B4413F8AC3C1C
:100F80000D2B09D1D7F82C32023B03F50E733B44ED
:100F9000002203F8AC2C08E0D7F82C32013B03F513
:100FA0000E733B44002203F8AC2C07F5C6731846B9
:100FB00000F026FC024607F5C6731146184600F0FD
:100FC00053FB07F5867107F5C67380221846FFF7B5
:100FD000D5F807F58673184600F012FC024607F5AF
:100FE00086731146184600F03FFB07F586731846D6
:100FF00000F006FCC7F81402D7F81432C7F82832FC
:1010000028E000BF00080240E0230008EC230008AD
:10101000F8230008082400081C24000830240008D5
:101020000000002000000808000004080400002060
:10103000482400085C24000807F50E73A3F5967297
:10104000D7F82832134400221A70D7F82832013317
:10105000C7F82832D7F828321F2BEDD907F50E73C1
:10106000A3F59673002283F8402007F5867318468F
:1010700000F0C6FB03463D4AA2FB0323DB08C7F88A
:10108000103207F58673184600F0BAFB0246374B5C
:10109000A3FB0213D9080B469B000B445B00D31A39
:1010A000C7F80C320A2000F0CDFA07F5867318460F
:1010B00000F0A6FB024607F586731146184600F0BD
:1010C000D3FA0A2000F0BEFAD7F81032DBB2303380
:1010D000DBB2184600F0B6FAD7F80C32DBB2303388
:1010E000DBB2184600F0AEFA07F5867340211846C9
:1010F00000F0BAFA1E4B1B681E4607F586731846A9
:1011000000F07EFB024607F586731946304600F074
:1011100047F8174B1B6818463B1D8022194600F004
:1011200052F83B1D8021184600F09EFA104B1A68B9
:10113000D7F8243213440E4A13600D4B1B68B3F5E5
:10114000802F03D1072000F019F80AE0084B1B6834
:10115000084A934205D1062000F010F8044B064AD5
:101160001A600023C7F82C3266E600BFCDCCCCCC89
:1011700000000020000008080000040880B582B0CC
:1011800000AF0346FB7100F0A7FBFB790021184676
:1011900000F0F4FB00F0AEFB00BF0837BD4680BD99
:1011A00080B584B000AFF860B9607A6000F094FB5D
:1011B0007A68B968F86800F0D3FB00F09BFB00BFC9
:1011C0001037BD4680BD80B487B000AFF860B9600D
:1011D0007A60FB683B6100237B610AE03A697B69C6
:1011E0001A44B9687B690B4412781A707B69013321
:1011F0007B617A697B689A42F0D300BF00BF1C37DD
:10120000BD465DF8047B704780B485B000AFF860E0
:10121000B9607A60FB68BA681A60FB6800229A605D
:10122000FB680022DA607B685A1EFB685A6000BFC8
:101230001437BD465DF8047B704780B483B000AFBF
:1012400078607B689A687B68DB689A420CBF0123F0
:101250000023DBB218460C37BD465DF8047B7047AF
:1012600080B487B000AF78600B46FB707B689B68EA
:101270007B617B68DB683B613B695A1C7B685B6810
:101280001340FB60FA687B699A4201D1002309E0B0
:101290007B681A683B691344FA781A707B68FA68AD
:1012A000DA60012318461C37BD465DF8047B7047A1
:1012B00080B485B000AF786039607B689B68FB6064
:1012C0007B68DB68BB60BA68FB689A4201D1002387
:1012D00010E07B681A68FB6813441A783B681A7040
:1012E000FB685A1C7B685B681340FB607B68FA688C
:1012F0009A60012318461437BD465DF8047B704799
:1013000080B483B000AF78607B689B6818460C3768
:10131000BD465DF8047B704780B483B000AF786051
:101320007B68DB6818460C37BD465DF8047B704768
:1013300080B400AF064BD3E90023501C43F10001F9
:10134000034BC3E9000100BFBD465DF8047B704755
:101350005801002080B500AF024800F0CDFC00BF6E
:1013600080BD00BF6824000880B500AF05494FF478
:101370007A7000F0A1FD00F0C2FD00F0B9FD00BFE1
:1013800080BD00BF00BD010580B400AF044BD3E9B0
:10139000002310461946BD465DF8047B704700BF28
:1013A0005801002080B500AFFFF7D4FFFFF7DCFF46
:1013B00000BF80BD80B582B000AF08210E4800F0AC
:1013C0006AFD0346FB7120210B4800F064FD0346D3
:1013D000BB71BB79002B02D1FB79002B08D00648EA
:1013E00000F051FD0346DBB219460448FFF738FF11
:1013F00000BF0837BD4680BD0010014060010020DD
:1014000080B582B000AF08210E4800F044FD0346CD
:10141000FB7120210B4800F03EFD0346BB71BB79F8
:10142000002B02D1FB79002B08D0064800F02BFDE1
:101430000346DBB219460448FFF712FF00BF083726
:10144000BD4680BD00440040F001002080B500AFE3
:10145000802216491648FFF7D7FE40F6840000F0B8
:101460001CFB0C21134800F0E9FC0021114800F09E
:10147000EBFC08210F4800F0CCFC4FF4E1310D48A3
:1014800000F0BCFC00210B4800F0D2FC012109480F
:1014900000F0C8FC074800F0EDFC252000F036FD08
:1014A000044800F0D7FC00BF80BD00BF70010020E1
:1014B000600100200010014080B500AF8022164975
:1014C0001648FFF7A1FE40F6110000F0E6FA0C21E5
:1014D000134800F0B3FC0021114800F0B5FC0821CE
:1014E0000F4800F096FC4FF4E1310D4800F086FC07
:1014F00000210B4800F09CFC0121094800F092FCFF
:10150000074800F0B7FC262000F000FD044800F07A
:10151000A1FC00BF80BD00BF00020020F001002040
:101520000044004080B582B000AF0346FB71FB79F8
:101530009BB21946034800F092FC00BF0837BD4635
:1015400080BD00BF0010014080B584B000AF78605E
:1015500039600023FB6009E07A68FB6813441B785C
:101560001846FFF7DFFFFB680133FB60FA683B6852
:101570009A42F1D300BF00BF1037BD4680BD80B591
:1015800084B000AF786039603B68002B01D1002344
:1015900019E00023FB600FE07A68FB6813441946EA
:1015A0000B48FFF785FE034683F00103DBB2002BF7
:1015B00007D1FB680133FB60FA683B689A42EBD3C2
:1015C00000E000BFFB6818461037BD4680BD00BF75
:1015D0006001002080B582B000AF0023FB71FB1DCD
:1015E00001211846FFF7CBFFFB7918460837BD46A7
:1015F00080BD80B500AF0848FFF71FFE0346002BF3
:1016000014BF01230023DBB283F00103DBB203F03C
:101610000103DBB2184680BD6001002080B500AF39
:101620000248FFF779FE0346184680BD600100209E
:1016300080B500AF0248FFF763FE0346184680BD41
:101640006001002080B582B000AF0346FB71FB79DA
:101650009BB21946034800F002FC00BF0837BD46A4
:1016600080BD00BF0044004080B584B000AF78600A
:1016700039600023FB6009E07A68FB6813441B783B
:101680001846FFF7DFFFFB680133FB60FA683B6831
:101690009A42F1D300BF00BF1037BD4680BD80B570
:1016A00084B000AF786039603B68002B01D1002323
:1016B00019E00023FB600FE07A68FB6813441946C9
:1016C0000B48FFF7F5FD034683F00103DBB2002B67
:1016D00007D1FB680133FB60FA683B689A42EBD3A1
:1016E00000E000BFFB6818461037BD4680BD00BF54
:1016F000F001002080B582B000AF0023FB71FB1D1C
:1017000001211846FFF7CBFFFB7918460837BD4685
:1017100080BD80B500AF0848FFF78FFD0346002B62
:1017200014BF01230023DBB283F00103DBB203F01B
:101730000103DBB2184680BDF001002080B500AF88
:101740000248FFF7E9FD0346184680BDF00100207E
:1017500080B500AF0248FFF7D3FD0346184680BDB1
:10176000F001002080B400AF00BFFDE780B582B07B
:1017700000AF104B7B60104B3B6007E07A68131D95
:101780007B603B68191D396012681A603B680B4A20
:101790009342F3D30A4B3B6004E03B681A1D3A6066
:1017A00000221A603B68074A9342F6D3FFF7AAFA71
:1017B00000BFFDE70C2600080000002058010020B3
:1017C00058010020B80300200000000000000000C5
:1017D0000000000000000000000000000000000009
:1017E00000000000000000000000000000000000F9
:1017F00000000000000000000000000000000000E9
:1018000030B490F800F020F007016FF0000C10F0F9
:10181000070491F820F040F048804FF000046FF08A
:101820000700D1E9002391F840F000F1080082FAA6
:101830004CF2A4FA8CF283FA4CF3A2FA8CF34BBB71
:10184000D1E9022382FA4CF200F10800A4FA8CF2EA
:1018500083FA4CF3A2FA8CF3E3B9D1E9042382FAB8
:101860004CF200F10800A4FA8CF283FA4CF3A2FACD
:101870008CF37BB9D1E9062301F1200182FA4CF205
:1018800000F10800A4FA8CF283FA4CF3A2FA8CF36C
:10189000002BC6D0002A04BF04301A4612BAB2FA8E
:1018A00082F200EBD20030BC7047D1E9002304F093
:1018B0000305C4F100004FEAC50514F0040F91F8C8
:1018C00040F00CFA05F562EA05021CBF63EA050365
:1018D00062464FF00004AAE7044B054AC3F8042C03
:1018E00002F18832C3F8042C704700BF0030024078
:1018F00023016745034AD2F8103C43F00043C2F885
:10190000103C704700300240064BD3F8102C22F4F4
:101910004072C3F8102CD3F8102C42EA0022C3F80E
:10192000102C70470030024070B50C4C05460E4636
:1019300000F0F8FA0020FFF7E7FFD4F8103C43F07E
:101940000103C4F8103C2E7000F0ECFAD4F8103CFF
:1019500023F00103C4F8103C70BD00BF003002400A
:1019600070B50C468D18461AAC4200D170BD3019C6
:1019700014F8011BFFF7D8FFF6E7000038B50D4655
:10198000044600F0CFFA2846174DFFF7BDFFD5F803
:10199000103C0B2C88BF043423F0F803C5F8103C2E
:1019A00088BFE4B2D5F8103CE400E4B21C43C5F8AB
:1019B000104CD5F8103C43F00203C5F8103CD5F8A4
:1019C000103C43F48033C5F8103C00F0ABFAD5F876
:1019D000103C23F00203C5F8103CD5F8103C23F06E
:1019E000F803C5F8103C38BD0030024081617047F3
:1019F000436901EA030221EA030141EA02418161EC
:101A000070472DE9F0410568C46800264FF0030EC9
:101A100043FA06F7FF070DD577000EFA07FC01FA27
:101A200007F825EA0C0524EA0C0402FA07F748EA4D
:101A300005053C430136102EEAD10560C460BDE8BF
:101A4000F081F0B5066A456A00234FF00F0C42FAA8
:101A500003F4E70707D59C000CFA04F726EA07060B
:101A600001FA04F426430133082BF0D100234FF090
:101A70000F0C03F1080442FA04F4E40707D59C00B4
:101A80000CFA04F725EA070501FA04F425430133AB
:101A9000082BEED106624562F0BD430903F1804395
:101AA00003F50E3300F01F001968012282400A433B
:101AB0001A60704706282BD8DFE800F0041E240ABD
:101AC00010161A00134BD3F80008C0F3406070479B
:101AD000104BD3F80008C0F3404070470D4BD3F8CB
:101AE0000008C0F3400070470A4BD3F87008F8E7CD
:101AF000084BD3F87408F4E7064BD3F80008C0F39A
:101B000040707047034BD3F80008C0F3C0607047C3
:101B1000002070470030024008B502461046FFF72B
:101B2000C9FF0028FAD008BD06280CD8DFE800F06D
:101B300004282E0C12182000174AD2F8003843F05F
:101B40008073C2F800387047134AD2F8003843F463
:101B50008033F6E7104AD2F8003843F00103F0E78B
:101B60000D4AD2F8703843F00103C2F8703870475C
:101B7000094AD2F8743843F00103C2F87438704748
:101B8000054AD2F8003843F08053DAE7024AD2F827
:101B9000003843F08063D4E70030024006280CD8B8
:101BA000DFE800F004282E0C12182000174AD2F8A3
:101BB000003823F08073C2F800387047134AD2F817
:101BC000003823F48033F6E7104AD2F8003823F0C7
:101BD0000103F0E70D4AD2F8703823F00103C2F890
:101BE00070387047094AD2F8743823F00103C2F8FC
:101BF00074387047054AD2F8003823F08053DAE78A
:101C0000024AD2F8003823F08063D4E70030024063
:101C1000044AD2F8083823F003030343C2F8083813
:101C2000704700BF00300240044AD2F8083823F45D
:101C3000604343EA4033C2F808387047003002403E
:101C4000044AD2F8083823F4E05343EA8023C2F868
:101C50000838704700300240044AD2F8083823F0B0
:101C6000F00343EA0013C2F808387047003002401E
:101C700010B547F6C07404EA811400F03F001B065B
:101C800003F0706304431C43029B5208022B02F1D1
:101C9000FF324FEA024238BF022302F440321B07F0
:101CA00003F0E04314431C43014BC3F8044810BD48
:101CB0000030024010B5029C022C38BF02242407D9
:101CC0001B0603F0706304F0E04452081C4300F06C
:101CD0003F0047F6C073013A03EA8113044312043C
:101CE0001C4302F44032034B144344F48004C3F811
:101CF000044810BD0030024073B504460420FFF7CD
:101D000013FFFFF709FF0020FFF782FFE379012BA4
:101D100004D10320FFF708FFFFF7FEFE40F61C008A
:101D2000FFF7BBFEE07B00F039F9207BFFF794FF63
:101D3000607BFFF785FFA07BFFF776FF0020FFF7B2
:101D40002DFFE679A579207861882279637900955D
:101D5000012E2FD1FFF7AEFF0020FFF7E5FEFFF7C2
:101D6000DBFEA3685A0528D500F0F0F8A3689B05B0
:101D700026D500F0FFF8A06800F0DCF80220FFF79D
:101D800047FF124AD2F8083803F00C03082BF9D1A8
:101D90000F4B22691A600F4B62691A600E4BA269E1
:101DA0001A60E379012B0ED1042002B0BDE8704027
:101DB000FFF7F4BEFFF75CFFCEE700F0D1F8D5E700
:101DC00000F0E2F8D7E702B070BD00BF003002407B
:101DD000100000200C00002008000020044B20F41C
:101DE000806098420CBF034B034B1868704700BFDC
:101DF00000100140080000200C00002038B50C46FF
:101E00000546FFF7EBFF00EB5403B3FBF4F3AB60C5
:101E100038BDC36808290CBF23F4805343F48053B2
:101E2000C3607047036923F440530B430361704759
:101E3000C36823F4C0630B43C3607047C36823F0D7
:101E40000C030B43C3607047436923F440730B4397
:101E500043617047C36843F40053C360704738B5AB
:101E600004460D4600F013F829462046BDE83840E8
:101E700000F005B8C36843F02003C3607047C1F3A6
:101E80000801416070474068C0F30800704703686C
:101E90001B06FCD5704700680840003818BF0120B9
:101EA00070474FF0E02200F00400136923F00403B0
:101EB000034313617047000008B5B1FBF0F10B4B11
:101EC000994210D86FF07F43994226BFC90800207D
:101ED0000420FFF7E6FF01394FF0E02321F07F41B6
:101EE0005961012008BD0020FCE700BFF7FFFF0794
:101EF0004FF0E022136943F00203136170474FF083
:101F0000E022136943F0010313617047044B420957
:101F100003EB820300F01F00012282401A60704729
:101F200000E100E0024AD2F80C3CDB03FBD470472E
:101F300000300240044AD2F8003C23F00F03034370
:101F4000C2F8003C704700BF00300240034AD2F89C
:101F5000003C43F48063C2F8003C7047003002400C
:101F6000034AD2F8003C23F48063C2F8003C704777
:101F700000300240034AD2F8003C43F40073C2F838
:101F8000003C704700300240034AD2F8003C23F482
:101F90000073C2F8003C704700300240024A1368E8
:101FA00060F38F3313607047007000400A220021F5
:101FB00000F0B2B8931E222B10B50C460CD80A2A9A
:101FC00003D000F0B7F8204610BD0028F9DA2D2321
:101FD00001F8013B4042F4E700230B70184610BDA6
:101FE000242B2DE9F84F43D8012B41D08046494896
:101FF0001F468E4675461EF801BB10F80B4014F0C4
:102000000804F7D1BBF12D0F6FD0BBF12B0F08BF28
:102010009EF800B06FF0004908BF05F1020E73BBD7
:10202000BBF1300F4BD00A273B460025B9FBF7F632
:10203000284607FB169A05E03AD007FB00C00125A9
:102040001EF801BBABF1300CBCF1090F06D9ABF1A6
:10205000410CBCF1190F19D8ABF1370C63451EDDEB
:10206000B5F1FF3FECD08642E6D24FF0FF35E7E70F
:1020700000F0A6F9162303600020BDE8F88F102BAE
:10208000D3D1BBF1300F23D01F46CEE7ABF1610CAB
:10209000BCF1190F03D8ABF1570C6345E0DC6B1CA6
:1020A0002BD054B9002AE8D085BB1160BDE8F88F69
:1020B000E245C2DA4FF0FF35C2E74042F2E79EF850
:1020C000003003F0DF03582B08D008273B46ACE76D
:1020D0009EF8000000F0DF005828D5D110279EF8A8
:1020E00001B03B460EF1020E9FE79EF800B04FF0A4
:1020F000004905F1020E012491E72223C8F80030BF
:1021000032B10EF1FF3148461160CFE78146F8E762
:102110004846B2E70125000810B4054C8446134632
:1021200020685DF8044B0A466146FFF759BF00BFBF
:1021300014000020F0B5254FA2F1020E1646054608
:102140000C460FCF8BB0EC46ACE80F000FCFACE8DD
:102150000F0097E803004CF8040BBEF1220F8CF837
:1021600000102DD804F1FF3E70464FF0000CB5FB77
:10217000F6F206FB12536B44614693F800C000F878
:1021800001CF2B469E4201F1010C1546EFD90023E9
:1021900004F80C3089B1A44472461EF8010F1CF8F3
:1021A000015D8EF80050A4EB0E030232013B121BBE
:1021B0000B449A428CF80000EEDB20460BB0F0BDD9
:1021C0000023184623700BB0F0BD00BFD8240008D0
:1021D000830730B546D08418844604E003F8011B19
:1021E0009D0704D09C46A4456346F7D130BD013A13
:1021F0000244A2EB0C02032A29D9CCB204EB04243A
:102200000F2A04EB04442FD9A2F1100C2CF00F0C70
:1022100003F11005AC44C3E90044C3E902441033A0
:102220006345F8D112F00C0F02F00F0E18D02EF00B
:10223000030C9C44AEF104051A4642F8044B624577
:10224000FBD125F0030404330EF003022344002ADB
:10225000CCD0C9B21A4403F8011B9342FBD130BD64
:102260007246F4E70346C6E79646E0E78AB330B520
:1022700040EA0104A40786460B4617D1032A07D873
:1022800014E0043A23D01CF0803F20D1032A26D941
:10229000DEF80040194653F8045BA4F1013CAC425F
:1022A00070462CEA040C0EF1040EEAD003780C7888
:1022B000013AA34208BF121807D00CE06BB110F826
:1022C000013F11F8014FA34205D19042F6D1002001
:1022D00030BD10467047181B30BD184630BD7046E3
:1022E0001946E3E740EA01039B0710B501D1032A31
:1022F00017D8844601F1FF3E07E01EF8011F03F8DE
:10230000011B541E29B19C4622466346002AF4D183
:1023100010BD9444002CFBD003F8011B6345FBD196
:1023200010BD8E468446DEF80040A4F1013323EA56
:10233000040313F0803F71460EF1040EDAD1043A23
:10234000032A4CF8044BEED87146D3E7024A1268D0
:102350000123503200F002B81400002018B370B509
:1023600086468C461EF8015B01E0A54214D01CF89D
:10237000014B002CF9D1DDB176460C4616F8015B15
:1023800000E063B114F8013B9D42FAD14DB1002346
:102390008EF80030166070BD6BB17046E0E7B6464F
:1023A000EAE72E46F6E710680028D8D100207047EB
:1023B0001560002070BDC2F800E0037070BD00BF62
:0C23C000014B1868704700BF140000209B
:1023CC0024474E524D430000244750524D430000C9
:1023DC002C00000041542B52455345540D0A00006B
:1023EC0041542B4D4F44453D300D0A0041542B4177
:1023FC004444524553533D310D0A000041542B4E79
:10240C004554574F524B49443D350D0A00000000CE
:10241C0041542B42414E443D383638303030303008
:10242C00300D0A0041542B504152414D45544552F8
:10243C003D392C372C312C340D0A000041542B53D0
:10244C00454E443D322C352C48454C4C4F0D0A0022
:10245C0041542B53454E443D322C0000100050018A
:10246C0004070000020600000004000300BD010583
:10247C0080DE800200BD010508006000020400003F
:10248C00030600000004000300D8B805006CDC0251
:10249C0000D8B80510005001020700000506000026
:1024AC0000050403007A030A80DE800200BD0105EA
:1024BC001000680102080000050600000005040376
:1024CC000095BA0A40A5AE02804A5D053031323320
:1024DC003435363738396162636465666768696AB2
:1024EC006B6C6D6E6F707172737475767778797AB8
:1024FC000000000000202020202020202020282860
:10250C0028282820202020202020202020202020A7
:10251C0020202020208810101010101010101010E7
:10252C001010101010040404040404040404041017
:10253C0010101010101041414141414101010101A5
:10254C00010101010101010101010101010101016F
:10255C00101010101010424242424242020202027B
:10256C00020202020202020202020202020202023F
:10257C0010101010200000000000000000000000EF
:10258C00000000000000000000000000000000003F
:10259C00000000000000000000000000000000002F
:1025AC00000000000000000000000000000000001F
:1025BC00000000000000000000000000000000000F
:1025CC0000000000000000000000000000000000FF
:1025DC0000000000000000000000000000000000EF
:1025EC0000000000000000000000000000000000DF
:0825FC000000000000000000D7
:08260400FCF1FF7F0100000062
:10260C0000000408000004080024F4000024F40076
:10261C000024F400180000200000000080020020BC
:10262C00E802002050030020000000000000000021
:10263C00000000000000000000000000000000008E
:10264C00000000000000000000000000000000007E
:10265C00000000000000000000000000000000006E
:10266C00000000000000000000000000000000005E
:10267C00000000000000000000000000000000004E
:10268C00000000000000000000000000000000003E
:10269C00000000000000000000000000000000002E
:1026AC00000000000000000000000000000000001E
:1026BC0001000000000000000E33CDAB34126DE6BB
:1026CC00ECDE05000B000000000000000000000024
:1026DC0000000000000000000000000000000000EE
:1026EC0000000000000000000000000000000000DE
:1026FC0000000000000000000000000000000000CE
:10270C0000000000000000000000000000000000BD
:10271C0000000000000000000000000000000000AD
:10272C00000000000000000000000000000000009D
:10273C00000000000000000000000000000000008D
:10274C00000000000000000000000000000000007D
:08275C00000000000000000075
:040000050800176D6B
:00000001FF
