:020000040800F2
:10000000000002207D06000875060008750600083D
:100010007506000875060008750600080000000057
:10002000000000000000000000000000750600084D
:10003000750600080000000075060008A10200080F
:1000400000000000000000000000000000000000B0
:1000500000000000000000000000000000000000A0
:100060000000000000000000000000000000000090
:100070000000000000000000000000000000000080
:100080000000000000000000000000000000000070
:100090000000000000000000000000000000000060
:1000A0000000000000000000000000000000000050
:1000B0000000000000000000000000000000000040
:1000C0000000000000000000000000000000000030
:0C00D0000000000071030008710300082C
:1000DC0080B500AF40F2026000F04FFB4FF40053CC
:1000EC00002201210A4800F0FCFA4FF4C06000F035
:1000FC0044FB40F20C6300220221064800F0F1FAA6
:10010C0040F20C620721034800F00BFB00BF80BDDE
:10011C000008024000000240B0B584B000AF00F00F
:10012C00F3F8FFF7D5FF4FF400511B4800F0CEFA5F
:10013C0000F03EF900F0DAF8C7E902014FF4005183
:10014C00154800F0C5FA00F0D1F8D7E90223841A5B
:10015C0061EB0305C82C75F100030CD34FF400516F
:10016C000D4800F0B5FA00F0C1F8C7E90201022110
:10017C00732000F0B8F9022000F043FA0346002B7C
:10018C00E1D0022000F01EFA0346FB71FB7902213C
:10019C00184600F0A8F9D6E70008024080B485B0F4
:1001AC0000AFF860B9607A60FB68BA681A60FB68E7
:1001BC0000229A60FB680022DA607B685A1EFB689A
:1001CC005A6000BF1437BD465DF8047B704780B49D
:1001DC0083B000AF78607B689A687B68DB689A4272
:1001EC000CBF01230023DBB218460C37BD465DF86B
:1001FC00047B704780B487B000AF78600B46FB700F
:10020C007B689B687B617B68DB683B613B695A1C44
:10021C007B685B681340FB60FA687B699A4201D18A
:10022C00002309E07B681A683B691344FA781A705A
:10023C007B68FA68DA60012318461C37BD465DF806
:10024C00047B704780B485B000AF786039607B6800
:10025C009B68FB607B68DB68BB60BA68FB689A4292
:10026C0001D1002310E07B681A68FB6813441A78EC
:10027C003B681A70FB685A1C7B685B681340FB6018
:10028C007B68FA689A60012318461437BD465DF8FE
:10029C00047B704780B400AF064BD3E90023501C9D
:1002AC0043F10001034BC3E9000100BFBD465DF8FB
:1002BC00047B70471000002080B500AF024800F0AE
:1002CC008BFB00BF80BD00BF880C000880B500AF61
:1002DC0005494FF47A7000F05FFC00F080FC00F0F0
:1002EC0077FC00BF80BD00BF00BD010580B400AF2E
:1002FC00044BD3E9002310461946BD465DF8047B38
:10030C00704700BF1000002080B500AFFFF7D4FF8E
:10031C00FFF7DCFF00BF80BD80B582B000AF0821C5
:10032C000E4800F028FC0346FB7120210B4800F01E
:10033C0022FC0346BB71BB79002B02D1FB79002B4D
:10034C0008D0064800F00FFC0346DBB219460448FF
:10035C00FFF750FF00BF0837BD4680BD00100140BD
:10036C001800002080B582B000AF08210E4800F0C4
:10037C0002FC0346FB7120210B4800F0FCFB0346FA
:10038C00BB71BB79002B02D1FB79002B08D006483E
:10039C0000F0E9FB0346DBB219460448FFF72AFFDD
:1003AC0000BF0837BD4680BD004400402800002037
:1003BC0080B500AF80222B492B48FFF7EFFE80223F
:1003CC002A492B48FFF7EAFE40F6840000F0D5F9E5
:1003DC0040F6110000F0D1F90C21264800F09EFBEC
:1003EC000C21254800F09AFB0021224800F09CFBD0
:1003FC000021214800F098FB08211E4800F079FBF1
:10040C0008211D4800F075FB4FF4E131194800F04C
:10041C0065FB4FF4E131184800F060FB00211548F2
:10042C0000F076FB0021144800F072FB012111480A
:10043C0000F068FB0121104800F064FB0D4800F04F
:10044C0089FB0D4800F086FB252000F0CFFB262011
:10045C0000F0CCFB074800F06DFB074800F06AFB8E
:10046C0000BF80BD3800002018000020B80000201C
:10047C0028000020001001400044004080B586B0E8
:10048C0000AFF860B9607A607B68012B12D1002351
:10049C007B610AE0FA687B6913441B7801211846DA
:1004AC0000F021F87B6901337B617A69BB689A4261
:1004BC00F0D314E07B68022B11D100233B610AE0DE
:1004CC00FA683B6913441B780221184600F00BF8BC
:1004DC003B6901333B613A69BB689A42F0D300BF78
:1004EC001837BD4680BD80B582B000AF0346396079
:1004FC00FB713B68012B06D1FB799BB2194608486E
:10050C0000F01DFB08E03B68022B05D1FB799BB288
:10051C001946044800F013FB00BF0837BD4680BDE8
:10052C00001001400044004080B586B000AFF86078
:10053C00B9607A60BB68002B01D1002339E07B687D
:10054C00012B19D100237B6111E0FA687B691344FC
:10055C0019461A48FFF776FE034683F00103DBB217
:10056C00002B01D07B6924E07B6901337B617A69C4
:10057C00BB689A42E9D31BE07B68022B18D100239D
:10058C003B6111E0FA683B69134419460C48FFF7CC
:10059C0059FE034683F00103DBB2002B01D03B690B
:1005AC0007E03B6901333B613A69BB689A42E9D386
:1005BC00BB6818461837BD4680BD00BF1800002028
:1005CC002800002080B584B000AF78600023FB7356
:1005DC007B68012B06D107F10F030122012118467C
:1005EC00FFF7A2FF7B68022B06D107F10F03022253
:1005FC0001211846FFF798FFFB7B18461037BD46C4
:10060C0080BD80B582B000AF78607B68012B0FD1C4
:10061C001348FFF7DCFD0346002B14BF0123002316
:10062C00DBB283F00103DBB203F00103DBB213E0B6
:10063C007B68022B0FD10B48FFF7C9FD0346002B3B
:10064C0014BF01230023DBB283F00103DBB203F000
:10065C000103DBB200E0002318460837BD4680BD1D
:10066C00180000202800002080B400AF00BFFDE778
:10067C0080B582B000AF104B7B60104B3B6007E045
:10068C007A68131D7B603B68191D396012681A600B
:10069C003B680B4A9342F3D30A4B3B6004E03B6844
:1006AC001A1D3A6000221A603B68074A9342F6D33F
:1006BC00FFF732FD00BFFDE7F80C0008000000203A
:1006CC000C000020100000203801002081617047D0
:1006DC00436901EA030221EA030141EA0241816113
:1006EC0070472DE9F0410568C46800264FF0030EF1
:1006FC0043FA06F7FF070DD577000EFA07FC01FA4F
:10070C0007F825EA0C0524EA0C0402FA07F748EA74
:10071C0005053C430136102EEAD10560C460BDE8E6
:10072C00F081F0B5066A456A00234FF00F0C42FACF
:10073C0003F4E70707D59C000CFA04F726EA070632
:10074C0001FA04F426430133082BF0D100234FF0B7
:10075C000F0C03F1080442FA04F4E40707D59C00DB
:10076C000CFA04F725EA070501FA04F425430133D2
:10077C00082BEED106624562F0BD430903F18043BC
:10078C0003F50E3300F01F001968012282400A4362
:10079C001A60704706282BD8DFE800F0041E240AE4
:1007AC0010161A00134BD3F80008C0F340607047C2
:1007BC00104BD3F80008C0F3404070470D4BD3F8F2
:1007CC000008C0F3400070470A4BD3F87008F8E7F4
:1007DC00084BD3F87408F4E7064BD3F80008C0F3C1
:1007EC0040707047034BD3F80008C0F3C0607047EB
:1007FC00002070470030024008B502461046FFF753
:10080C00C9FF0028FAD008BD06280CD8DFE800F094
:10081C0004282E0C12182000174AD2F8003843F086
:10082C008073C2F800387047134AD2F8003843F48A
:10083C008033F6E7104AD2F8003843F00103F0E7B2
:10084C000D4AD2F8703843F00103C2F87038704783
:10085C00094AD2F8743843F00103C2F8743870476F
:10086C00054AD2F8003843F08053DAE7024AD2F84E
:10087C00003843F08063D4E70030024006280CD8DF
:10088C00DFE800F004282E0C12182000174AD2F8CA
:10089C00003823F08073C2F800387047134AD2F83E
:1008AC00003823F48033F6E7104AD2F8003823F0EE
:1008BC000103F0E70D4AD2F8703823F00103C2F8B7
:1008CC0070387047094AD2F8743823F00103C2F823
:1008DC0074387047054AD2F8003823F08053DAE7B1
:1008EC00024AD2F8003823F08063D4E7003002408B
:1008FC00044AD2F8083823F003030343C2F808383B
:10090C00704700BF00300240044AD2F8083823F484
:10091C00604343EA4033C2F8083870470030024065
:10092C00044AD2F8083823F4E05343EA8023C2F88F
:10093C000838704700300240044AD2F8083823F0D7
:10094C00F00343EA0013C2F8083870470030024045
:10095C0010B547F6C07404EA811400F03F001B0682
:10096C0003F0706304431C43029B5208022B02F1F8
:10097C00FF324FEA024238BF022302F440321B0717
:10098C0003F0E04314431C43014BC3F8044810BD6F
:10099C000030024010B5029C022C38BF0224240700
:1009AC001B0603F0706304F0E04452081C4300F093
:1009BC003F0047F6C073013A03EA81130443120463
:1009CC001C4302F44032034B144344F48004C3F838
:1009DC00044810BD0030024073B504460420FFF7F4
:1009EC0013FFFFF709FF0020FFF782FFE379012BCC
:1009FC0004D10320FFF708FFFFF7FEFE40F61C00B2
:100A0C00FFF7BBFEE07B00F031F9207BFFF794FF92
:100A1C00607BFFF785FFA07BFFF776FF0020FFF7D9
:100A2C002DFFE679A5792078618822796379009584
:100A3C00012E2FD1FFF7AEFF0020FFF7E5FEFFF7E9
:100A4C00DBFEA3685A0528D500F0E8F8A3689B05DF
:100A5C0026D500F0F7F8A06800F0D4F80220FFF7D4
:100A6C0047FF124AD2F8083803F00C03082BF9D1CF
:100A7C000F4B22691A600F4B62691A600E4BA26908
:100A8C001A60E379012B0ED1042002B0BDE870404E
:100A9C00FFF7F4BEFFF75CFFCEE700F0C9F8D5E72F
:100AAC0000F0DAF8D7E702B070BD00BF00300240AA
:100ABC00080000200400002000000020044B20F45B
:100ACC00806098420CBF034B034B1868704700BF03
:100ADC0000100140000000200400002038B50C4636
:100AEC000546FFF7EBFF00EB5403B3FBF4F3AB60ED
:100AFC0038BDC36808290CBF23F4805343F48053DA
:100B0C00C3607047036923F440530B430361704780
:100B1C00C36823F4C0630B43C3607047C36823F0FE
:100B2C000C030B43C3607047436923F440730B43BE
:100B3C0043617047C36843F40053C360704738B5D2
:100B4C0004460D4600F013F829462046BDE838400F
:100B5C0000F005B8C36843F02003C3607047C1F3CD
:100B6C000801416070474068C0F308007047036893
:100B7C001B06FCD5704700680840003818BF0120E0
:100B8C0070474FF0E02200F00400136923F00403D7
:100B9C00034313617047000008B5B1FBF0F10B4B38
:100BAC00994210D86FF07F43994226BFC9080020A4
:100BBC000420FFF7E6FF01394FF0E02321F07F41DD
:100BCC005961012008BD0020FCE700BFF7FFFF07BB
:100BDC004FF0E022136943F00203136170474FF0AA
:100BEC00E022136943F0010313617047044B42097F
:100BFC0003EB820300F01F00012282401A60704751
:100C0C0000E100E0044AD2F8003C23F00F03034358
:100C1C00C2F8003C704700BF00300240034AD2F8D3
:100C2C00003C43F48063C2F8003C70470030024043
:100C3C00034AD2F8003C23F48063C2F8003C7047AE
:100C4C0000300240034AD2F8003C43F40073C2F86F
:100C5C00003C704700300240034AD2F8003C23F4B9
:100C6C000073C2F8003C704700300240024A13681F
:0C0C7C0060F38F3313607047007000407D
:100C880010005001040700000206000000040003E1
:100C980000BD010580DE800200BD0105080060007E
:100CA80002040000030600000004000300D8B80591
:100CB800006CDC0200D8B8051000500102070000E3
:100CC8000506000000050403007A030A80DE80029E
:100CD80000BD0105100068010208000005060000BB
:100CE800000504030095BA0A40A5AE02804A5D05D6
:0C0CF8000024F4000024F4000024F400A8
:040000050800067D6C
:00000001FF
