:020000040800F2
:1000000000000220ED040008E5040008E5040008F3
:10001000E5040008E5040008E5040008000000000D
:10002000000000000000000000000000E5040008DF
:10003000E504000800000000E5040008A50200082F
:1000400000000000000000000000000000000000B0
:1000500000000000000000000000000000000000A0
:100060000000000000000000000000000000000090
:100070000000000000000000000000000000000080
:100080000000000000000000000000000000000070
:100090000000000000000000000000000000000060
:1000A0000000000000000000000000000000000050
:1000B0000000000000000000000000000000000040
:1000C0000000000000000000000000000000000030
:0C00D000000000000000000029030008F0
:1000DC0080B500AF40F2026000F087FA4FF4005395
:1000EC0000220121094800F034FA4FF4C06000F0FE
:1000FC007CFA0C2300220221054800F02AFA0C227B
:10010C000721034800F045FA00BF80BD00080240FB
:10011C0000000240B0B584B000AF00F0F7F8FFF774
:10012C00D7FF4FF400511C4800F008FA00F024F9F6
:10013C0000F0DEF8C7E9020100237B6003E000BF9A
:10014C007B6801337B607B68144A9342F7DD4FF484
:10015C000051114800F0F4F900F0CAF8D7E9022375
:10016C00841A61EB0305C82C75F1000306D300F06B
:10017C00BFF8C7E90201732000F04FF900F097F9BE
:10018C000346002BE8D000F083F90346FB70FB78A4
:10019C00184600F042F9DFE7000802403F4B4C00E4
:1001AC0080B485B000AFF860B9607A60FB68BA685B
:1001BC001A60FB6800229A60FB680022DA607B6898
:1001CC005A1EFB685A6000BF1437BD465DF8047BAD
:1001DC00704780B483B000AF78607B689A687B68A6
:1001EC00DB689A420CBF01230023DBB218460C37A4
:1001FC00BD465DF8047B704780B487B000AF786073
:10020C000B46FB707B689B687B617B68DB683B61A2
:10021C003B695A1C7B685B681340FB60FA687B691E
:10022C009A4201D1002309E07B681A683B691344A8
:10023C00FA781A707B68FA68DA60012318461C3762
:10024C00BD465DF8047B704780B485B000AF786024
:10025C0039607B689B68FB607B68DB68BB60BA6855
:10026C00FB689A4201D1002310E07B681A68FB6896
:10027C0013441A783B681A70FB685A1C7B685B68DD
:10028C001340FB607B68FA689A60012318461437A8
:10029C00BD465DF8047B704780B400AF064BD3E9D4
:1002AC000023501C43F10001034BC3E9000100BFC4
:1002BC00BD465DF8047B70471000002080B500AF90
:1002CC00024800F0C1FA00BF80BD00BFF80A000868
:1002DC0080B500AF05494FF47A7000F095FB00F043
:1002EC00B6FB00F0ADFB00BF80BD00BF00BD01053B
:1002FC0080B400AF044BD3E9002310461946BD4629
:10030C005DF8047B704700BF1000002080B500AF83
:10031C00FFF7D4FFFFF7DCFF00BF80BD80B582B0D4
:10032C0000AF4FF40051114800F00AF908211048B1
:10033C0000F059FB0346FB7120210D4800F053FBE4
:10034C000346BB71BB79002B02D1FB79002B08D083
:10035C00074800F040FB0346DBB219460548FFF79F
:10036C004BFF00BF0837BD4680BD00BF00080240F0
:10037C00004400401800002080B500AF80221649D0
:10038C001648FFF70DFF40F6110000F02EF90C2176
:10039C00134800F0FBFA0021114800F0FDFA082187
:1003AC000F4800F0DEFA4FF4E1310D4800F0CEFAC0
:1003BC0000210B4800F0E4FA0121094800F0DAFAB8
:1003CC00074800F0FFFA262000F048FB044800F034
:1003DC00E9FA00BF80BD00BF2800002018000020F3
:1003EC000044004080B584B000AF786039600023D1
:1003FC00FB6009E07A68FB6813441B78184600F030
:10040C000CF8FB680133FB60FA683B689A42F1D345
:10041C0000BF00BF1037BD4680BD80B582B000AFB5
:10042C000346FB71FB799BB21946034800F0BFFAF7
:10043C0000BF0837BD4680BD0044004080B584B085
:10044C0000AF786039603B68002B01D1002319E0C4
:10045C000023FB6011E07A68FB68134419460B48D3
:10046C00FFF7F2FE034683F00103DBB2002B01D051
:10047C00FB6807E0FB680133FB60FA683B689A4253
:10048C00E9D33B6818461037BD4680BD18000020E4
:10049C0080B582B000AF0023FB71FB1D0121184613
:1004AC00FFF7CCFFFB7918460837BD4680BD80B5F9
:1004BC0000AF0848FFF78DFE0346002B14BF012345
:1004CC000023DBB283F00103DBB203F00103DBB2E8
:1004DC00184680BD1800002080B400AF00BFFDE7B7
:1004EC0080B582B000AF104B7B60104B3B6007E0D7
:1004FC007A68131D7B603B68191D396012681A609D
:10050C003B680B4A9342F3D30A4B3B6004E03B68D5
:10051C001A1D3A6000221A603B68074A9342F6D3D0
:10052C00FFF7F8FD00BFFDE7680B00080000002096
:10053C000C00002010000020A800002081617047F2
:10054C00436901EA030221EA030141EA02418161A4
:10055C0070472DE9F0410568C46800264FF0030E82
:10056C0043FA06F7FF070DD577000EFA07FC01FAE0
:10057C0007F825EA0C0524EA0C0402FA07F748EA06
:10058C0005053C430136102EEAD10560C460BDE878
:10059C00F081F0B5066A456A00234FF00F0C42FA61
:1005AC0003F4E70707D59C000CFA04F726EA0706C4
:1005BC0001FA04F426430133082BF0D100234FF049
:1005CC000F0C03F1080442FA04F4E40707D59C006D
:1005DC000CFA04F725EA070501FA04F42543013364
:1005EC00082BEED106624562F0BD430903F180434E
:1005FC0003F50E3300F01F001968012282400A43F4
:10060C001A60704706282BD8DFE800F0041E240A75
:10061C0010161A00134BD3F80008C0F34060704753
:10062C00104BD3F80008C0F3404070470D4BD3F883
:10063C000008C0F3400070470A4BD3F87008F8E785
:10064C00084BD3F87408F4E7064BD3F80008C0F352
:10065C0040707047034BD3F80008C0F3C06070477C
:10066C00002070470030024008B502461046FFF7E4
:10067C00C9FF0028FAD008BD06280CD8DFE800F026
:10068C0004282E0C12182000174AD2F8003843F018
:10069C008073C2F800387047134AD2F8003843F41C
:1006AC008033F6E7104AD2F8003843F00103F0E744
:1006BC000D4AD2F8703843F00103C2F87038704715
:1006CC00094AD2F8743843F00103C2F87438704701
:1006DC00054AD2F8003843F08053DAE7024AD2F8E0
:1006EC00003843F08063D4E70030024006280CD871
:1006FC00DFE800F004282E0C12182000174AD2F85C
:10070C00003823F08073C2F800387047134AD2F8CF
:10071C00003823F48033F6E7104AD2F8003823F07F
:10072C000103F0E70D4AD2F8703823F00103C2F848
:10073C0070387047094AD2F8743823F00103C2F8B4
:10074C0074387047054AD2F8003823F08053DAE742
:10075C00024AD2F8003823F08063D4E7003002401C
:10076C00044AD2F8083823F003030343C2F80838CC
:10077C00704700BF00300240044AD2F8083823F416
:10078C00604343EA4033C2F80838704700300240F7
:10079C00044AD2F8083823F4E05343EA8023C2F821
:1007AC000838704700300240044AD2F8083823F069
:1007BC00F00343EA0013C2F80838704700300240D7
:1007CC0010B547F6C07404EA811400F03F001B0614
:1007DC0003F0706304431C43029B5208022B02F18A
:1007EC00FF324FEA024238BF022302F440321B07A9
:1007FC0003F0E04314431C43014BC3F8044810BD01
:10080C000030024010B5029C022C38BF0224240791
:10081C001B0603F0706304F0E04452081C4300F024
:10082C003F0047F6C073013A03EA811304431204F4
:10083C001C4302F44032034B144344F48004C3F8C9
:10084C00044810BD0030024073B504460420FFF785
:10085C0013FFFFF709FF0020FFF782FFE379012B5D
:10086C0004D10320FFF708FFFFF7FEFE40F61C0043
:10087C00FFF7BBFEE07B00F031F9207BFFF794FF24
:10088C00607BFFF785FFA07BFFF776FF0020FFF76B
:10089C002DFFE679A5792078618822796379009516
:1008AC00012E2FD1FFF7AEFF0020FFF7E5FEFFF77B
:1008BC00DBFEA3685A0528D500F0E8F8A3689B0571
:1008CC0026D500F0F7F8A06800F0D4F80220FFF766
:1008DC0047FF124AD2F8083803F00C03082BF9D161
:1008EC000F4B22691A600F4B62691A600E4BA2699A
:1008FC001A60E379012B0ED1042002B0BDE87040E0
:10090C00FFF7F4BEFFF75CFFCEE700F0C9F8D5E7C0
:10091C0000F0DAF8D7E702B070BD00BF003002403B
:10092C00080000200400002000000020044B20F4EC
:10093C00806098420CBF034B034B1868704700BF94
:10094C0000100140000000200400002038B50C46C7
:10095C000546FFF7EBFF00EB5403B3FBF4F3AB607E
:10096C0038BDC36808290CBF23F4805343F480536B
:10097C00C3607047036923F440530B430361704712
:10098C00C36823F4C0630B43C3607047C36823F090
:10099C000C030B43C3607047436923F440730B4350
:1009AC0043617047C36843F40053C360704738B564
:1009BC0004460D4600F013F829462046BDE83840A1
:1009CC0000F005B8C36843F02003C3607047C1F35F
:1009DC000801416070474068C0F308007047036825
:1009EC001B06FCD5704700680840003818BF012072
:1009FC0070474FF0E02200F00400136923F0040369
:100A0C00034313617047000008B5B1FBF0F10B4BC9
:100A1C00994210D86FF07F43994226BFC908002035
:100A2C000420FFF7E6FF01394FF0E02321F07F416E
:100A3C005961012008BD0020FCE700BFF7FFFF074C
:100A4C004FF0E022136943F00203136170474FF03B
:100A5C00E022136943F0010313617047044B420910
:100A6C0003EB820300F01F00012282401A607047E2
:100A7C0000E100E0044AD2F8003C23F00F030343EA
:100A8C00C2F8003C704700BF00300240034AD2F865
:100A9C00003C43F48063C2F8003C704700300240D5
:100AAC00034AD2F8003C23F48063C2F8003C704740
:100ABC0000300240034AD2F8003C43F40073C2F801
:100ACC00003C704700300240034AD2F8003C23F44B
:100ADC000073C2F8003C704700300240024A1368B1
:0C0AEC0060F38F3313607047007000400F
:100AF8001000500104070000020600000004000373
:100B080000BD010580DE800200BD0105080060000F
:100B180002040000030600000004000300D8B80522
:100B2800006CDC0200D8B805100050010207000074
:100B38000506000000050403007A030A80DE80022F
:100B480000BD01051000680102080000050600004C
:100B5800000504030095BA0A40A5AE02804A5D0567
:0C0B68000024F4000024F4000024F40039
:04000005080004EDFE
:00000001FF
